:100000000C94A5000C945F160C948C160C94CD00E7
:100010000C94CD000C94CD000C94CD000C94CD002C
:100020000C94CD000C94CD000C94CD000C94CD001C
:100030000C94CD000C94CD000C94CD000C94CD000C
:100040000C94FA130C94CD000C94D5190C94111A3D
:100050000C94CD000C94CD000C94CD000C94CD00EC
:100060000C94CA120C94CD0007634236B79BD8A7F4
:100070001A39685618AEBAAB558C1D3CB7CC5763CD
:10008000BD6DEDFD753EF6177231BF000000803F7B
:1000900008000000BE922449123EABAAAA2ABECD97
:1000A000CCCC4C3E00000080BEABAAAAAA3E000009
:1000B0000000BF000000803F000000000008417801
:1000C000D3BB4387D1133D190E3CC3BD4282AD2B38
:1000D0003E68EC8276BED98FE1A93E4C80EFFFBE30
:1000E00001C4FF7F3F000000000000000007000285
:1000F00001000003040600000000000000000102EF
:1001000004081020408001020408102001020408A5
:100110001020040404040404040402020202020283
:10012000030303030303000000002300260029004B
:1001300000000000250028002B0000000000240023
:1001400027002A00A810D911CC1A11241FBECFEF06
:10015000D8E0DEBFCDBF11E0A0E0B1E0E8E2F1E41D
:1001600002C005900D92A638B107D9F713E0A6E8B2
:10017000B1E001C01D92A43BB107E1F711E0CAE470
:10018000D1E004C02297FE010E94171FC434D1079A
:10019000C9F70E942C190C9492200C940000CF9364
:1001A000DF93EC01862F6883498360E00E94151578
:1001B00060E089810E94151560E088810E944D15DC
:1001C00060E08981DF91CF910C944D15683010F477
:1001D000685F01C06FE0FC016283089561E0FC018B
:1001E00081810E94151582E390E00C94A614CF93B0
:1001F000DF93EC0161E089810E94151582E390E0B4
:100200000E94A61460E088810E94151582E390E0A8
:100210000E94A61460E089810E94151582E390E097
:10022000DF91CF910C94A6140F931F93CF93DF937C
:10023000EC01062F18E061E088810E94151582E329
:1002400090E00E94A61400FF02C060E001C061E0DF
:1002500089810E94151582E390E00E94A61460E057
:1002600088810E94151582E390E00E94A6140695ED
:10027000115009F761E088810E94151560E08981BD
:100280000E94151582E390E00E94A61460E0888128
:100290000E94151582E390E00E94A61489810E94B5
:1002A0008415182F811104C061E089810E94151501
:1002B00082E390E00E94A61461E088810E941515F7
:1002C00082E390E00E94A61481E0111101C080E059
:1002D000DF91CF911F910F910895CF92DF92EF920E
:1002E000FF920F931F93CF93DF9300D0CDB7DEB76C
:1002F0006C01F62EE42E29837A830E94EE0060E4DE
:10030000C6010E941401C6010E94F700C6010E94A6
:10031000EE002981622F63706054C6010E941401AF
:100320000F2D7A81172F06C0F80161918F01C60148
:100330000E941401802F8F198E15B0F3C6010E9400
:10034000F700C6010E94EE00F60162816058C60106
:100350000E941401C6010F900F90DF91CF911F9161
:100360000F91FF90EF90DF90CF900C94F7004F9299
:100370005F926F927F928F929F92AF92BF92CF9235
:10038000DF92EF920F931F93CF93DF9300D000D0B3
:10039000CDB7DEB73C016B01322F202F87E1A82EAD
:1003A00081E0B82E88248394912C8C0E9D1EF4013C
:1003B00001E01FE3D5015E904E905D01C601B201E0
:1003C0000E94A31E6115710561F4411106C000234E
:1003D00021F08E2F8819833011F4108313C01082FE
:1003E00011C0DB01AF70BB27A95EBE4F8C9180832B
:1003F000649DC001659D900D749D900D1124C81AD7
:10040000D90A00E0EE2039F08E2F8819813019F4D6
:100410008081806880833196BFE0AB16B1E0BB0677
:1004200049F684E090E0831B9109BE016F5F7F4F26
:10043000680F791F432FC3010E946D010F900F9029
:100440000F900F90DF91CF911F910F91EF90DF9060
:10045000CF90BF90AF909F908F907F906F905F9064
:100460004F9008956F70E62FF0E0E95EFE4F8081B7
:100470000895FC0181E09081911101C080E0089510
:10048000CF93DF93EC01862F6E834F83288791E013
:100490009D8760E00E94151561E08E810E944D15D8
:1004A00019861A861B861C86DF91CF910895DF92EC
:1004B000EF92FF920F931F93CF93DF93EC0161E0D4
:1004C0008E810E944D156AEF70E080E090E00E94FE
:1004D00080140E94441409851A852B853C85601779
:1004E00071078207930720F419861A861B861C86DB
:1004F0002D85211111C009851A852B853C85DC01CC
:10050000CB01801B910BA20BB30B803D9740A10543
:10051000B10510F481E073C01D860E944414698700
:100520007A878B879C871C821B821A821982188289
:1005300061E08E810E94151560E08E810E944D154C
:1005400064E170E080E090E00E948014F89461E043
:100550008E810E944D1588E290E00E94A61460E012
:100560008E810E941515F12CD12C81E009C0E394F5
:1005700081E090E00E94A6148FEFE81204C009C049
:10058000E12C082F10E08E810E94841580179107BE
:1005900071F38E810E9484159FEFE916C9F023E064
:1005A0002F1590F4F0FC10C09D2D9695969596957C
:1005B000FE01E90FF11D9081990F908328852E157A
:1005C00010F491609083D394F39495E5F912D8CF09
:1005D000789427E22D1590F42C8130E048818981B0
:1005E00090E0840F911D4A81840F911D4B81840FEF
:1005F000911D99272817390709F48CCF80E0DF91E6
:10060000CF911F910F91FF90EF90DF900895EF929F
:10061000FF920F931F93CF93DF93EC010E94570239
:10062000882391F18F818B3029F070F185518230D0
:1006300058F507C0688170E080E090E00E941E1CC1
:100640002DC0688170E080E090E00E941E1C20E0D8
:1006500030E040E853E40E94D01C7B018C016981AA
:1006600070E080E090E00E94201C9B01AC016E2DA8
:100670007F2D802F912F0E941D1B20E030E040E253
:1006800051E40E94851B0AC067E271E089E093E0B3
:100690000E94861760E070E080EC9FE7DF91CF91C9
:1006A0001F910F91FF90EF900895CF92DF92EF92FC
:1006B000FF920F931F93CF93DF938C01C62F0E945D
:1006C0005702882309F477C0F80187818B3039F00D
:1006D00008F471C08551823008F06DC01DC0F8016A
:1006E000628170E080E090E00E941E1CB62FA72F70
:1006F000F82FE92F462F572F682F792FCB01BA01FA
:10070000CC2309F462C020E030E040E151E46B2FDB
:100710007A2F8F2F9E2F37C0F801D2816D2F6F77E0
:1007200070E080E090E00E94201C20E030E040E893
:1007300053E40E94D01C6B017C01F801638170E0DE
:1007400080E090E00E94201C9B01AC016C2D7D2D6F
:100750008E2D9F2D0E941D1B20E030E040E251E4D1
:100760000E94851B472F382F292F862F942FA32FC8
:10077000B22FBC01CD01D7FD9058CC2331F120E040
:1007800030E040E151E40E94D01C20E030E040EA3B
:1007900050E40E94851B20E030E040E052E40E94DB
:1007A0001D1B472F382F292F862F942FA32FB22FB1
:1007B000BC01CD010AC067E271E089E093E00E94CC
:1007C000861760E070E080EC9FE7DF91CF911F918A
:1007D0000F91FF90EF90DF90CF90089588E392E023
:1007E0000C947E11CF93DF93EC0168E670E088E310
:1007F00092E00E94B71160E088E392E00E943E110F
:1008000088E392E00E94CC1147E050E068E670E097
:1008100088E392E00E94AA1188E392E00E94BC1053
:10082000382F3695369536953E70232F220F220F9E
:10083000230F8F709927280F288388E392E00E9466
:10084000BC10282F22952F708F7099273AE0239F94
:10085000800D1124898388E392E00E94BC10382F18
:100860003695369536953670232F220F220F230F9B
:100870008F709927280F2A8388E392E00E94BC108A
:10088000282F22952F708F7099273AE0239F800D93
:1008900011248B8388E392E00E94BC10282F2295BC
:1008A0002F708F7099273AE0239F800D11248C833D
:1008B00088E392E00E94BC10282F22952F708F7041
:1008C00099273AE0239F800D11248D8388E392E0DD
:1008D0000E94BC10282F22952F708F7099273AE024
:1008E000239F800D11248E831F82DF91CF91089565
:1008F000CF93DF93EC01862F688319824A831B8292
:100900002C831E821D8261E00E94151561E08A81A0
:10091000DF91CF910C9415151F93CF93DF93EC01CA
:1009200060E08A810E944D158AE090E00E94A61442
:1009300014E061E08A810E944D1560E08A810E9486
:100940004D151150B1F7DF91CF911F910895FF928E
:100950000F931F93CF93DF93EC018B0190E1F92E5E
:10096000612F661F6627661F8A810E944D15888148
:100970000E94841561E0892B09F060E088810E9463
:100980004D15000F111FFA9459F7DF91CF911F9168
:100990000F91FF900895EF92FF920F931F93CF93C3
:1009A000DF93EC017B01CB0193709E838D8360E02C
:1009B00070E0CE010E94A70400E010E08C81882343
:1009C00051F0C701002E02C0880F991F0A94E2F768
:1009D00091FF0DC009C0C701002E02C096958795F2
:1009E0000A94E2F780FF03C06FEF70E002C060E09E
:1009F00070E0CE010E94A7040F5F1F4F0A3011055F
:100A0000E9F660E070E0CE010E94A70460E070E0CB
:100A1000CE010E94A704CE01DF91CF911F910F91CB
:100A2000FF90EF900C948C04662321F06B3018F04B
:100A30006AE001C061E0262F215061E070E002C051
:100A4000660F771F2A95E2F7FC0125813681622720
:100A50007327768365830C94CB04662321F06B3077
:100A600018F06AE001C061E0562F5150FC01258169
:100A7000368161E070E002C0660F771F5A95E2F799
:100A8000442319F0622B732B04C060957095622388
:100A90007323FC01768365830C94CB046B3008F0E0
:100AA0006AE02FEF3FEF02C0220F331F6A95E2F793
:100AB00020953095FC0136832583B9010C94CB0435
:100AC000FC016483658176810C94CB04FC018581F3
:100AD00096810895FC0181E020813181232B09F466
:100AE00080E00895CF93DF93EC0160E088810E945D
:100AF0004D1584E190E00E94A61461E088810E9477
:100B00004D1584E190E0DF91CF910C94A6140F93E2
:100B10001F93CF93DF93EC01062F18E007FF02C06D
:100B200061E001C060E089810E944D15CE010E9404
:100B30007205000F115091F7DF91CF911F910F9126
:100B40000895EF92FF921F93CF93DF9300D0CDB71C
:100B5000DEB77C01162F27FF02C060EC01C060EEFB
:100B600026FF606147FF686046FF646017FF6260B0
:100B700016FF6160C70129834A830E948705298186
:100B8000622FC7010E9487054A81642FC7010E9416
:100B90008705612FC7010F900F90DF91CF911F91B3
:100BA000FF90EF900C9487057F928F929F92AF9267
:100BB000BF92CF92DF92EF92FF920F931F93CF934A
:100BC000DF93EC01162F942E822E60E00E948705A1
:100BD00060E0CE010E94870560E0CE010E9487059B
:100BE00060E0CE010E94870583E0189F7001112408
:100BF00067018FEFC81AD80A570182E0A80EB11C0E
:100C0000712C1FC071120FC0EB81FC81EE0DFF1D16
:100C10009082EB81FC81EC0DFD1D8082EB81FC81DB
:100C2000EA0DFB1D0083EB81FC8183E0789EE00DE3
:100C3000F11D1124228141816081CE010E94A10514
:100C400073948A817816F0F260E0CE010E948705E5
:100C500060E0CE010E94870560E0CE010E9487051A
:100C600060E0CE01DF91CF911F910F91FF90EF9047
:100C7000DF90CF90BF90AF909F908F907F900C941B
:100C800087050F931F93CF93DF93EC01862F688323
:100C900049832A8361E00E94151561E089810E94E1
:100CA00015158A8161E070E023E0829FC001112464
:100CB0000E941B1F8B839C8310E008C000E020E093
:100CC00040E0612FCE010E94D4051F5F8A81181772
:100CD000A8F3DF91CF911F910F910895FC018281BC
:100CE00008951F93CF93DF931F92CDB7DEB7162FD2
:100CF00088E392E049830E947E116CE470E088E30F
:100D000092E00E94B711612F88E392E00E943E11A9
:100D10004981642F88E392E00E943E1188E392E0CB
:100D20000F90DF91CF911F910C94CC11462F67E06B
:100D30000C947106462F68E00C947106CF93DF93F4
:100D4000EC0160E00E94960660E0CE010E949A06E7
:100D500061E0CE01DF91CF910C9496064F925F92A5
:100D60006F927F928F929F92AF92BF92CF92DF92BB
:100D7000EF92FF920F931F93CF93DF9300D01F92B8
:100D8000CDB7DEB75B016A01790180E48B838A838A
:100D900089830E9444142B013C010DC00E9444141D
:100DA0006419750986099709653F714081059105A8
:100DB00014F080E06EC088E392E00E94B310181631
:100DC000190664F388E392E00E94BC1043E050E00F
:100DD0006CE470E088E392E00E94AA110E9444143F
:100DE0002B013C018E010F5F1F4F48012DC0C80130
:100DF000881999090397D4F40E9444142B013C01EB
:100E000011C088E392E00E94BC10F80180830E9428
:100E100044146419750986099709633371058105BE
:100E200091053CF6F8018081803458F70E94441403
:100E30000F5F1F4F6419750986099709653F714057
:100E4000810591050CF0B5CF88E392E00E94B310C4
:100E5000892B69F69981892F880F880F95FD8D5F01
:100E600085958595F50180839A81892F880F880F54
:100E700095FD8D5F85958595F60180839B81892FF2
:100E8000880F880F95FD8D5F85958595F701808387
:100E900081E00F900F900F90DF91CF911F910F91F4
:100EA000FF90EF90DF90CF90BF90AF909F908F908A
:100EB0007F906F905F904F9008958091BD019091C9
:100EC000BE01019731F46091B80188E392E00E947D
:100ED0003E118091BD019091BE018330910529F0B2
:100EE0008730910511F0C89741F443E050E06FEA74
:100EF00071E088E392E00E9410118091BD01909111
:100F0000BE018830910511F0449741F444E050E06F
:100F10006FEA71E088E392E00E9410118091BD01B8
:100F20009091BE018036910541F445E050E06AEAB7
:100F300071E088E392E00E9410118091BD019091D0
:100F4000BE018E31910511F0889741F449E050E0DF
:100F50006FEA71E088E392E00C9410110895CF934A
:100F6000DF9322C088E392E00E94B310049741F41B
:100F70001092BA011092B9011092BC011092BB01FB
:100F8000C091BB01D091BC0188E392E00E94BC10EB
:100F9000FE01EE0FFF1FE354FE4F918380832196E5
:100FA000D093BC01C093BB0188E392E00E94B310D0
:100FB000892BC1F6DF91CF910895CF92DF92EF9206
:100FC000FF920F931F93809106010E948415892B35
:100FD00059F40E945614609398017093990180937C
:100FE0009A0190939B0122C00E945614009198018F
:100FF0001091990120919A0130919B01C0909C0120
:10100000D0909D01E0909E01F0909F01C01AD10AFE
:10101000E20AF30AC60ED71EE81EF91EC0929C0112
:10102000D0929D01E0929E01F0929F011F910F913D
:10103000FF90EF90DF90CF90089540E855E260E098
:1010400070E089E093E00E944C1A64E070E088E36D
:1010500092E00E949B116FEA77E088E392E00E94A1
:10106000CF116DE577E088E392E00E94D41161E34F
:1010700071E089E093E00C94A5174F925F926F9214
:101080007F928F929F92AF92BF92CF92DF92EF9218
:10109000FF920F931F93CF93DF93CDB7DEB72C97BB
:1010A0000FB6F894DEBF0FBECDBF8091BB0190910B
:1010B000BC01049709F070C58091B9019091BA0103
:1010C000892B09F069C581E090E09093BA01809383
:1010D000B9018091BD019091BE01019731F48091D9
:1010E000BF010E9484158093B8018091BD01909149
:1010F000BE01029731F46091C1018091BF010E944D
:101100004D158091BD019091BE010397A9F4809186
:10111000BF010E94AD159093A9018093A8019C0185
:1011200097FF02C021503F4F3093B00160E071E063
:101130000E94A31E8093B1018091BD019091BE01D8
:10114000049741F46091C1017091C2018091BF0187
:101150000E94CE158091BD019091BE01059731F49A
:101160006091C1018091BF010E9415158091BD0160
:101170009091BE01079709F042C08091BF01909104
:10118000C001809388019093890161E00E94151548
:1011900060E0809188010E944D1582E090E00E94FD
:1011A000A61461E0809188010E944D1585E090E0D1
:1011B0000E94A61460E0809188010E944D1560E0B5
:1011C000809188010E94151520E432E44FE050E040
:1011D00061E0809188010E94B9162AE330E040E086
:1011E00050E00E94D91ECA01B90120E031E040E080
:1011F00050E00E94D91E2093B0016093B10180910C
:10120000BD019091BE018830910539F481E0809351
:10121000B00182E08093B10121C0449709F580912B
:10122000A701811107C087E392E00E949E0681E03A
:101230008093A70125EA31E044EA51E063EA71E0D6
:1012400087E392E00E94AE068091A3018093B001F3
:101250008091A4018093B1018091A5018093B20196
:101260008091BD019091BE014E9769F58091A601D4
:10127000811107C08FE292E00E94EE0381E080932B
:10128000A6018FE292E00E94F203809131028093E6
:10129000B001809130028093B10180912F02809340
:1012A000B201809134028093B30180913302809324
:1012B000B401909135029093B5018093B60180916D
:1012C00032028093B7018091BD019091BE01889751
:1012D00009F059C08091C1019091C201009719F4A1
:1012E00026E04BE005C08130910549F426E046E157
:1012F0006091BF0181E292E00E94400208C082300A
:10130000910519F426E045E1F3CF0397D9F360E0A6
:1013100081E292E00E94550369877A878B879C87D8
:1013200081E292E00E9407036D837E838F8398871A
:101330001092870110928601FE01399680E090E0BC
:1013400001962191DC01A155BE4F2C93843091056B
:10135000BCF384E090E0909387018093860101962E
:10136000DC01A155BE4FE5E0F0E0EC0FFD1FE80FFA
:10137000F91F359720812C938830910584F3909341
:101380008701809386018091BD019091BE01C29733
:10139000D9F48091BF019091C001482F21E0609164
:1013A000C1017091C201672B09F420E0642F6F5FC7
:1013B000FC01329737E03E9FC0013F9F900D112402
:1013C00089509E4F0E9478048091BD019091BE018A
:1013D000C39791F42091BF013091C001225031098F
:1013E00047E0429FC001439F900D112489509E4FBA
:1013F0000E946A058111CBC48091BD019091BE010C
:10140000C49791F42091BF013091C001225031095D
:1014100017E0129FC001139F900D112489509E4F19
:101420000E946A058111CCC48091BD019091BE01DA
:10143000C59791F42091BF013091C001225031092C
:1014400047E0429FC001439F900D112489509E4F59
:101450000E946A058111C6C48091BD019091BE01B0
:10146000C69791F42091BF013091C00122503109FB
:1014700017E0129FC001139F900D112489509E4FB9
:101480000E946A058111C9C48091BD019091BE017D
:10149000C79791F42091BF013091C00122503109CA
:1014A00017E0129FC001139F900D112489509E4F89
:1014B0000E946A058111C3C48091BD019091BE0153
:1014C000C89791F42091BF013091C0012250310999
:1014D00017E0129FC001139F900D112489509E4F59
:1014E0000E946A058111C4C48091BD019091BE0122
:1014F0008634910591F46091BF017091C001462F2F
:101500004F5F9B0122503109C901880F991F820F3B
:10151000931F8B519E4F0E94CF008091BD019091EF
:10152000BE018734910589F42091BF013091C0013B
:1015300022503109C901880F991F820F931F8B51C7
:101540009E4F0E9439028111A7C48091BD019091E4
:10155000BE018834910589F42091BF013091C0010A
:1015600022503109C901880F991F820F931F8B5197
:101570009E4F0E9439028111A1C48091BD019091BA
:10158000BE018934910589F42091BF013091C001D9
:1015900022503109C901880F991F820F931F8B5167
:1015A0009E4F0E9439028111A6C48091BD01909185
:1015B000BE018A34910589F42091BF013091C001A8
:1015C00022503109C901880F991F820F931F8B5137
:1015D0009E4F0E9439028111ABC48091BD01909150
:1015E000BE018B34910589F42091BF013091C00177
:1015F00022503109C901880F991F820F931F8B5107
:101600009E4F0E9439028111BBC48091BD0190910F
:10161000BE018C34910589F42091BF013091C00145
:1016200022503109C901880F991F820F931F8B51D6
:101630009E4F0E9439028111BCC48091BD019091DE
:10164000BE018D349105A9F52091BF013091C001F3
:1016500022503109C901880F991F820F931F8B51A6
:101660009E4F0E94390281111CC523C0812F0E9408
:10167000AD15BC012091BF013091C001225031094C
:10168000C901880F991F820F931FE12C00E024E00D
:1016900040E08B519E4F0E94B7016AEF70E080E0FE
:1016A00090E00E9480142FEFC21AD20ACA14DB0401
:1016B000ECF28091BD019091BE018E34910589F4C8
:1016C0002091BF013091C00122503109C901880F1A
:1016D000991F820F931F8B519E4F0E9439028111D7
:1016E000EDC48091BD019091BE018F34910589F4C4
:1016F0002091BF013091C00122503109C901880FEA
:10170000991F820F931F8B519E4F0E9439028111A6
:10171000EFC48091BD019091BE018A35910569F4B5
:101720008091BF018093A0018091C1018093A101AC
:101730008091C3018093A20118C08B359105A9F453
:101740006091BF017091C001462F4F5F9B012250F5
:10175000310955E0529FC001539F900D11242091F3
:10176000C10189539E4F0E9441068091BD01909115
:10177000BE018C35910549F08091BD019091BE016B
:101780008D35910509F0BDC048C06091BF017091D1
:10179000C001462F4F5F9B012250310955E0529FF7
:1017A000C001539F900D11242091C10189539E4F78
:1017B0000E9441060091C3011091C40102FBDD2487
:1017C000D0F8D19401FBCC24C0F8C194017011274A
:1017D000102F1195E12CF12CA5E0BA2E16C06091C6
:1017E000BF017091C00162507109B69EC001B79EE1
:1017F000900D1124012F2C2D4D2D6E2D89539E4FB0
:101800000E94D4053FEFE31AF30A8091C101909141
:10181000C201E816F9061CF3AFCF2091C101309147
:10182000C2018091BF019091C001232BB1F49C01B2
:101830002250310945E0429FC001439F900D112481
:101840000091A2012091A1014091A0016091C301EA
:1018500089539E4F0E94D40554C09C0122503109E7
:1018600045E0429FC001439F900D112489539E4F34
:101870000E946E06E12CF12CC82ED12C15E03DC043
:101880002091C1013091C2012130310541F4809194
:10189000C3019091C401E816F906B1F42BC02230BF
:1018A000310541F48091C3019091C4018E159F05CB
:1018B0005CF420C023303105E9F48091C30190919C
:1018C000C401E816F906B4F02091BF013091C001BF
:1018D00022503109129FC001139F900D11240091D5
:1018E000A2012091A1014091A0016E2D89539E4F2C
:1018F0000E94D4058FEFE81AF80AEC14FD040CF4EA
:10190000BFCF8091BD019091BE018E35910549F008
:101910008091BD019091BE018F35910509F053C0B2
:101920005BC08091C3019091C4011816190634F070
:1019300081E090E09093C4018093C3012091BF01A6
:101940003091C0012250310945E0429FC001439FC0
:10195000900D112489539E4F0E946E06E090C101A4
:10196000F090C201C82ED12C15E029C08091C10190
:101970009091C2019701281B390BC9016091C301E5
:101980007091C4010E94A31E892BB1F42091BF0164
:101990003091C00122503109129FC001139F900D58
:1019A00011240091A2012091A1014091A0016E2D6E
:1019B00089539E4F0E94D4053FEFE31AF30AEC14BB
:1019C000FD04A4F2A5CF8091BD019091BE018036A7
:1019D000910509F0E1C083C02091BF013091C001A1
:1019E0002250310945E0429FC001439F900D1124D0
:1019F00089539E4F0E946E062091C3013091C4010D
:101A0000232B59F133C08091C1019091C2012091E3
:101A1000BF013091C00122503109E816F90664F483
:101A2000129FC001139F900D11240091A2012091DB
:101A3000A1014091A00108C0129FC001139F900D09
:101A4000112400E020E040E06E2D89539E4F0E945B
:101A5000D4058FEFE81AF80A05C0E12CF12CC82E46
:101A6000D12C15E0EC14FD0474F2ADCFC82ED12CAE
:101A7000760115E030C08091C1019091C2019601BC
:101A8000281B390B8091BF019091C001E216F3062B
:101A90007CF09C0122503109129FC001139F900DD0
:101AA00011240091A2012091A1014091A0010BC03D
:101AB0009C0122503109129FC001139F900D1124E7
:101AC00000E020E040E06E2D89539E4F0E94D40537
:101AD00021E0E21AF108E114F10469F674CF0091F3
:101AE000C1011091C2010130110509F044C080917B
:101AF000BF019091C001809306019093070110935C
:101B000093010093920160E00E94151580910601F7
:101B1000909107018230910529F410920D011092E5
:101B20000C0106C0039721F410930D0100930C01E2
:101B300041E050E06DED77E080910C010E942F169E
:101B40000E944414609394017093950180939601D0
:101B50009093970168E371E089E093E00E94A517F4
:101B60000E945614609398017093990180939A0192
:101B700090939B0111C00230110571F480910C010A
:101B80000E944F1610929301109292016DE471E041
:101B900089E093E00E94A5178091920190919301B2
:101BA000019709F0BEC20E944414809008019090F1
:101BB0000901A0900A01B0900B01009194011091CD
:101BC00095012091960130919701601B710B820B5A
:101BD000930B86169706A806B90608F0A2C2C09015
:101BE0009C01D0909D01E0909E01F0909F01C70163
:101BF000B6010E941E1C2B013C01C501B4010E94CC
:101C00001E1C20E030E040E251E40E94D01C9B0109
:101C1000AC01C301B2010E94851B3B018C01862FE0
:101C2000972DA02FB12F80938E0190938F01A093B9
:101C30009001B093910120E030E040E450E4662D43
:101C4000772D802F912F0E94331D2DEC3CEC4CE81A
:101C50005FE30E94D01C4B015C01262D372D402FE5
:101C6000512F662D772D802F912F0E94D01C23E3BA
:101C700033E343E750E40E94D01C9B01AC01C50153
:101C8000B4010E941C1B4B015C0120E030E042E0EB
:101C900054E4662D772D802F912F0E94D01C9B013C
:101CA000AC01C501B4010E941D1B22E538EB4EE1D9
:101CB0005FE30E941D1B60938A0170938B018093E8
:101CC0008C0190938D012AE030E0B701A60189E0F4
:101CD00093E00E94151862E671E089E093E00E94AB
:101CE000861740918E0150918F0160919001709103
:101CF000910122E030E089E093E00E94161962E64B
:101D000071E089E093E00E94861740918A0150912A
:101D10008B0160918C0170918D0122E030E089E0AF
:101D200093E00E941819EAE8F1E080E090E0019663
:101D30002191DC01A655BE4F2C9384309105BCF354
:101D4000909387018093860110929C0110929D01CF
:101D500010929E0110929F0110928E0110928F019D
:101D6000109290011092910110928A0110928B01B1
:101D700010928C0110928D010E9444146093940182
:101D8000709395018093960190939701CAC161E089
:101D90008091C1019091C201892B09F460E02091EA
:101DA000BF013091C0012250310947E0429FC0017C
:101DB000439F900D112489509E4F0E9460051CCBBB
:101DC0002091BF013091C00122503109129FC00102
:101DD000139F900D11246091C10189509E4F0E9464
:101DE0004E0522CB41E08091C3019091C401892B23
:101DF00009F440E02091BF013091C0012250310927
:101E000057E0529FC001539F900D11246091C10172
:101E100089509E4F0E942D051FCB2091BF0130910C
:101E2000C00122503109129FC001139F900D11244F
:101E30006091C10189509E4F0E94140525CB90915D
:101E4000C30180E06091C1017091C20168277927C8
:101E50002091BF013091C00122503109129FC00171
:101E6000139F900D112489509E4F0E94CB0424CBC8
:101E70002091BF013091C00122503109129FC00151
:101E8000139F900D112489509E4F0E9466058093E8
:101E9000B0019093B10128CB2091BF013091C001D6
:101EA00022503109C901880F991F820F931F609139
:101EB000C1018B519E4F0E94E60047CB9091C30118
:101EC00080E06091C1017091C2016827792720915B
:101ED000BF013091C00122503109C901880F991FFB
:101EE000820F931FE12C00E024E040E08B519E4FD5
:101EF0000E94B70142CB9091C30180E06091C10183
:101F00007091C201682779272091BF013091C001EB
:101F100022503109C901880F991F820F931FE12CAC
:101F200000E024E041E08B519E4F0E94B7013DCB81
:101F30002091BF013091C00122503109C901880FA1
:101F4000991F820F931F6091C3018B519E4F0E9476
:101F5000320289832091BF013091C00122503109A2
:101F6000C901880F991F820F931F2091C10141E081
:101F7000BE016F5F7F4F8B519E4F0E946D012DCB35
:101F80008091C30189832091BF013091C00122500B
:101F90003109C901880F991F820F931F2091C10138
:101FA00041E0BE016F5F7F4F8B519E4F0E946D01DC
:101FB0002CCB8091C1019091C2010AE010E0B801E0
:101FC0000E94A31E2091BF013091C001225031090F
:101FD000C901880F991F820F931F8B519E4F0E943A
:101FE000320289838091C1019091C201B8010E949F
:101FF000A31E2091BF013091C00122503109A901D7
:10200000440F551F420F531F682FCA018B519E4F1B
:102010000E94320280688A838091C3019091C4013A
:10202000B8010E94A31E2091BF013091C00122502F
:102030003109C901880F991F820F931F8B519E4F41
:102040000E9432028B838091C3019091C401B80138
:102050000E94A31E2091BF013091C001225031097E
:10206000A901440F551F420F531F682FCA018B51FE
:102070009E4F0E9432028C832091BF013091C0019B
:1020800022503109C901880F991F820F931F20E048
:1020900044E0BE016F5F7F4F8B519E4F0E946D01E8
:1020A000CCCA1091C101A090C301B090C401AA0C88
:1020B000BB1CAA0CBB1CC12CD12CF8CA8FEF898386
:1020C0008A838B838C832091BF013091C001225081
:1020D0003109C901880F991F820F931F20E044E046
:1020E000BE016F5F7F4F8B519E4F0E946D01F9CAF9
:1020F00019821A821B821C822091BF013091C0017B
:1021000022503109C901880F991F820F931F20E0C7
:1021100044E0BE016F5F7F4F8B519E4F0E946D0167
:10212000F8CA2C960FB6F894DEBF0FBECDBFDF9174
:10213000CF911F910F91FF90EF90DF90CF90BF90C4
:10214000AF909F908F907F906F905F904F90089589
:102150000E945614609398017093990180939A019C
:1021600090939B01089520916C0230E080916D0264
:10217000281B3109C901089580916D0290916C026C
:10218000891750F4E82FF0E0E259FD4F208130E04C
:102190008F5F80936D0202C02FEF3FEFC90108955A
:1021A000E0916D0280916C02E81730F4F0E0E259A2
:1021B000FD4F208130E002C02FEF3FEFC9010895AD
:1021C0000895E0914402F09145023097E1F030919A
:1021D0006D0220916C023217B0F040E009C0DC01C2
:1021E000A20FB31F5C91D901A259BD4F5C934F5F01
:1021F000242F30E02617370794F310926D02609376
:102200006C02CB0109940895E0914602F0914702D7
:10221000309729F010924A021092490209940895C9
:10222000CF92DF92EF92FF920F931F93CF93DF93A2
:102230007C01CB018A0120914802222391F0EB011D
:102240006B01C40ED51E09C06991D701ED91FC91B7
:102250000190F081E02DC7010995CC15DD05A1F7AE
:1022600003C0642F0E949712C801DF91CF911F9184
:102270000F91FF90EF90DF90CF900895CF93DF9371
:102280001F92CDB7DEB76983209148022223D1F097
:1022900020914902203240F021E030E0FC013383FC
:1022A000228320E030E015C080914A02E82FF0E060
:1022B000E55BFD4F998190838F5F80934A02809305
:1022C000490205C061E0CE0101960E94971221E00B
:1022D00030E0C9010F90DF91CF910895FC01138286
:1022E000128248EE53E060E070E0448355836683D9
:1022F000778388E691E091838083089510926D0240
:1023000010926C0210924A02109249020C94DD1154
:10231000CF93DF93EC01862F0E94FB1184E091E1C3
:102320000E94B51281EE90E10E94B012CE01DF91C1
:10233000CF910C947E110C948811862F413208F0B5
:1023400040E26EE672E00E94FF1110926D028093EF
:102350006C02089521E00C949D1181E08093480265
:1023600060936B0210924A021092490208950C94F5
:10237000AD110F93062F21E0409149026BE472E00A
:1023800080916B020E94441210924A0210924902FC
:10239000109248020F91089561E00C94B911709366
:1023A0004502609344020895709347026093460289
:1023B000089588E392E00C946E111092970281E0E8
:1023C000809395021092940261E082E10E944D1583
:1023D00061E083E10E944D15E9EBF0E080818E7FA2
:1023E000808380818D7F808388E48093B80085E43A
:1023F0008093BC000895880F8093BA0008954132FD
:1024000008F03FC0909197029111FCCF91E090931A
:102410009702209395022FEF20938E021092930241
:10242000242F21502093920290939602909196022D
:10243000880F892B8093960280919402813041F419
:1024400010929402809196028093BB0085EC01C0AB
:1024500085EE8093BC00809197028130E1F38091FA
:102460009302841710F44091930228E932E0FB01B3
:10247000D90102C08D9181938A2F821B8417D0F3DA
:1024800001C040E0842F08950F93413208F046C008
:10249000909197029111FCCF92E090939702009354
:1024A00095029FEF90938E021092930240939202B6
:1024B000FB0168E972E0DB0102C091919D939A2FC4
:1024C000961B9417D0F31092960290919602880F63
:1024D000892B8093960280919402813041F410926E
:1024E0009402809196028093BB0085EC01C085EE3A
:1024F0008093BC00222321F0809197028230E1F387
:1025000080918E028F3F61F080918E02803251F077
:1025100080918E02803341F483E007C081E005C0E2
:1025200080E003C082E001C084E00F910895613231
:1025300098F420919702243089F460939002FC0172
:1025400088EB92E0DC0102C021912D932A2F281BF9
:102550002617D0F380E0089581E0089582E0089581
:102560009093D9028093D80208959093DB028093D0
:10257000DA02089585ED8093BC008091BC0084FD53
:10258000FCCF10929702089585EC8093BC001092C6
:10259000970208951F920F920FB60F9211242F9356
:1025A0003F934F935F936F937F938F939F93AF93DB
:1025B000BF93EF93FF938091B900887F803609F431
:1025C0009FC058F5883209F45BC090F4803109F45B
:1025D00052C038F4882309F4F8C0883009F0F9C0F3
:1025E0004AC0883109F44CC0803209F0F2C05CC0A6
:1025F000803409F46BC038F4803309F455C0883353
:1026000009F0E7C054C0803509F454C0883509F496
:1026100062C0883409F0DDC0DAC0883909F4CBC063
:10262000A8F4883709F46CC038F4883609F468C017
:10263000803709F0CEC064C0883809F4BCC0803946
:1026400009F464C0803809F0C4C060C0803B09F45C
:102650008AC038F4803A09F46BC0883A09F0B9C0EE
:1026600082C0803C09F4ABC0883C09F4A8C0883B18
:1026700009F0AFC08DC0809196028093BB0012C05C
:102680009091930280919202981788F5809193021D
:10269000E82FF0E0E856FD4F90819093BB008F5FEC
:1026A0008093930285EC88C080938E0290C08093C3
:1026B0008E0256C0809193029091BB00E82FF0E00B
:1026C000E856FD4F90838F5F809393029091930221
:1026D000809192026DC0809193029091BB00E82F8F
:1026E000F0E0E856FD4F90838F5F809393028091D6
:1026F000950281116CC081E08093940284EA60C0ED
:1027000083E08093970210928F02CCCF80918F024A
:10271000803208F050C080918F029091BB00E82F6A
:10272000F0E0E452FD4F90838F5F80938F02BACF29
:1027300080918F02803230F4E0918F02F0E0E45219
:10274000FD4F10820E94BA1260918F02E091D80270
:10275000F091D90270E08CED92E0099510928F0211
:102760000E94C41236C084E08093970210929102B6
:1027700010929002E091DA02F091DB0209958091CB
:102780009002811105C081E0809390021092B802FE
:1027900080919102E82FF0E0E854FD4F90819093F2
:1027A000BB008F5F80939102909191028091900283
:1027B000981708F477CF85E88093BC000AC085ECB1
:1027C0008093BC001092970204C010928E020E9467
:1027D000BA12FF91EF91BF91AF919F918F917F912D
:1027E0006F915F914F913F912F910F900FBE0F907E
:1027F0001F9018951F920F920FB60F9211242F93CE
:102800003F938F939F93AF93BF938091FC029091DE
:10281000FD02A091FE02B091FF0230910403232F2C
:102820002D5F2D3720F40196A11DB11D05C0232F6A
:102830002A570296A11DB11D209304038093FC0228
:102840009093FD02A093FE02B093FF0280910003DB
:1028500090910103A0910203B09103030196A11D81
:10286000B11D8093000390930103A0930203B093E2
:102870000303BF91AF919F918F913F912F910F9043
:102880000FBE0F901F9018950F931F938FB7F8945A
:102890000091FC021091FD022091FE023091FF0296
:1028A0008FBFB801C9011F910F9108950F931F9316
:1028B0009FB7F89400910003109101032091020347
:1028C0003091030386B5A89B06C08F3F21F00F5FB0
:1028D0001F4F2F4F3F4F9FBF322F212F102F002709
:1028E000080F111D211D311D42E0000F111F221F75
:1028F000331F4A95D1F7B801C9011F910F9108956F
:10290000CF92DF92EF92FF92CF93DF936B017C0126
:102910000E945614EB010EC00E9456146C1B7D0BD6
:10292000683E734038F081E0C81AD108E108F10828
:10293000C851DC4FC114D104E104F10469F7DF91FF
:10294000CF91FF90EF90DF90CF900895019739F0ED
:10295000880F991F880F991F02970197F1F7089523
:10296000789484B5826084BD84B5816084BD85B56A
:10297000826085BD85B5816085BDEEE6F0E0808131
:1029800081608083E1E8F0E0108280818260808352
:10299000808181608083E0E8F0E0808181608083D5
:1029A000E1EBF0E0808184608083E0EBF0E0808107
:1029B00081608083EAE7F0E08081846080838081A9
:1029C0008260808380818160808380818068808351
:1029D0001092C1000895833069F028F48130A1F08D
:1029E000823011F514C08630B1F08730C1F08430E8
:1029F000D9F404C0809180008F7703C0809180005B
:102A00008F7D80938000089584B58F7702C084B550
:102A10008F7D84BD08958091B0008F7703C0809131
:102A2000B0008F7D8093B0000895CF93DF9390E046
:102A3000FC01E250FF4F4491FC01EE5EFE4F849199
:102A4000882341F190E0880F991FFC01E65CFE4F5E
:102A500025913491D901805D9E4FFC01859194911F
:102A6000C82FD92F9FB7F8948C91611106C040955B
:102A700084238C938881842308C0623041F4242FFE
:102A8000209582238C938881842B888302C0842B99
:102A90008C939FBFDF91CF9108950F931F93CF9396
:102AA000DF931F92CDB7DEB7282F30E0F901E65152
:102AB000FF4F8491F901E250FF4F1491F901EE5E4E
:102AC000FE4F04910023D1F0882321F069830E94F6
:102AD000EB146981E02FF0E0EE0FFF1FE05DFE4F89
:102AE00085919491DC019FB7F8948C91611103C09A
:102AF0001095812301C0812B8C939FBF0F90DF9194
:102B0000CF911F910F910895CF93DF93282F30E03D
:102B1000F901E651FF4F8491F901E250FF4FD49142
:102B2000F901EE5EFE4FC491CC2389F081110E9421
:102B3000EB14EC2FF0E0EE0FFF1FEA5DFE4F8591E6
:102B40009491DC018C918D2321E030E011F420E0A0
:102B500030E0C901DF91CF9108958E3008F08E509A
:102B6000877020910E0140E4249F90011124822B54
:102B700080937C0080917A00806480937A008091B9
:102B80007A0086FDFCCF2091780030917900932F58
:102B900080E0AC01422B9A01C90108951F93CF93A5
:102BA000DF93182FEB0161E00E941515209711F4B7
:102BB00060E004C0CF3FD10539F461E0812FDF919F
:102BC000CF911F910C944D15E12FF0E0E651FF4F8E
:102BD000E491E330B9F028F4E13051F0E230B1F59E
:102BE0000CC0E63019F1E73049F1E43079F514C052
:102BF00084B5806884BDC7BD2EC084B5806284BDA5
:102C0000C8BD29C080918000806880938000D093E7
:102C10008900C09388001FC08091800080628093EB
:102C20008000D0938B00C0938A0015C08091B000C3
:102C300080688093B000C093B3000DC08091B00055
:102C400080628093B000C093B40005C0C038D10545
:102C50000CF0B3CFADCFDF91CF911F9108958230AB
:102C6000E8F4E82FF0E0EE0FFF1FEB5FFC4F7183FD
:102C70006083813041F0809169008C7F842B809348
:102C80006900E89A089580916900440F551F440F28
:102C9000551F837F842B80936900E99A08958230C1
:102CA00068F4813011F0E89801C0E998E82FF0E06D
:102CB000EE0FFF1FEB5FFC4F1182108208951F92F1
:102CC0000F920FB60F9211242F933F934F935F9360
:102CD0006F937F938F939F93AF93BF93EF93FF93E4
:102CE0008091050390910603892B29F0E09105035B
:102CF000F09106030995FF91EF91BF91AF919F91DC
:102D00008F917F916F915F914F913F912F910F9094
:102D10000FBE0F901F9018951F920F920FB60F9233
:102D200011242F933F934F935F936F937F938F93D0
:102D30009F93AF93BF93EF93FF938091070390917D
:102D40000803892B29F0E0910703F0910803099506
:102D5000FF91EF91BF91AF919F918F917F916F9173
:102D60005F914F913F912F910F900FBE0F901F9049
:102D700018958F929F92AF92BF92CF92DF92EF926F
:102D8000FF920F931F93CF93DF9390E0FC01E250EB
:102D9000FF4FD491FC01EE5EFE4F7491611102C0B1
:102DA000C0E001C0CD2FDA01C901BF70672F70E00C
:102DB000660F771F6A5D7E4F812C912C5401FB01B9
:102DC0000591149110C0C12CD12C7601C394C80C6C
:102DD000D91CEA1CFB1C88169906AA06BB0609F436
:102DE0004BC046015701F801E081ED23EC1759F380
:102DF00010C0C12CD12C7601C394C80CD91CEA1C7C
:102E0000FB1C88169906AA06BB06B1F146015701BC
:102E100003C0FB0105911491F801E081ED23EC134F
:102E2000E8CF88199909AA09BB0920E030E0A90177
:102E3000FB016591749109C0281739074A075B07A0
:102E4000D9F02F5F3F4F4F4F5F4FFB01E081ED23E4
:102E5000EC1791F3A5E1B0E00E94981E8B019C0154
:102E6000005F1F4F2F4F3F4F84E0369527951795F2
:102E700007958A95D1F703C000E010E09801B801EA
:102E8000C901DF91CF911F910F91FF90EF90DF90DB
:102E9000CF90BF90AF909F908F900895CF92DF9288
:102EA000EF92FF920F931F93CF93DF936C01EB018F
:102EB0007A01E60EF71E00E010E00BC06991D60122
:102EC000ED91FC910190F081E02DC6010995080F6C
:102ED000191FCE15DF0591F7C801DF91CF911F9122
:102EE0000F91FF90EF90DF90CF900895DB010D9050
:102EF0000020E9F7AD0141505109461B570BDC0199
:102F0000ED91FC910280F381E02D09940C947617E9
:102F1000DC01ED91FC910190F081E02D09940F937B
:102F20001F93CF93DF93EC016DE00E9488178C0113
:102F30006AE0CE010E9488179C01200F311FC90151
:102F4000DF91CF911F910F9108950F931F93CF930E
:102F5000DF93EC010E9476178C01CE010E948F173F
:102F60009801280F391FC901DF91CF911F910F914F
:102F700008954F925F926F927F929F92AF92BF920D
:102F8000CF92DF92EF92FF920F931F93CF93DF9335
:102F9000CDB7DEB7A1970FB6F894DEBF0FBECDBF99
:102FA0005C016A017B01922E19A281E0821710F068
:102FB0008AE0982E8E010F5D1F4F492C512C612CF9
:102FC000712CC701B601A30192010E94B71E8C2D7E
:102FD000929E80191124015011098A3014F4805DE9
:102FE00001C0895CF801808369017A01C114D104B0
:102FF000E104F10431F7B801C5010E947617A196EA
:103000000FB6F894DEBF0FBECDBFDF91CF911F91F9
:103010000F91FF90EF90DF90CF90BF90AF909F9077
:103020007F906F905F904F9008952115310541F486
:10303000DC01ED91FC910190F081E02D642F099469
:103040000C94B917CF92DF92EF92FF920F931F93D8
:10305000CF93DF93EC016A017B012115310579F4EF
:10306000E881F9810190F081E02D642FDF91CF910B
:103070001F910F91FF90EF90DF90CF9009942A302D
:10308000310519F477FD0EC02AE0B701A601CE0183
:10309000DF91CF911F910F91FF90EF90DF90CF9034
:1030A0000C94B9176DE20E9488178C0144275527AC
:1030B000BA014C195D096E097F092AE0CE010E9410
:1030C000B917080F191FC801DF91CF911F910F91F8
:1030D000FF90EF90DF90CF9008957F928F929F9214
:1030E000AF92BF92CF92DF92EF92FF920F931F9316
:1030F000CF93DF938C014A015B01F22E20E030E098
:10310000A901C501B4010E94811B87FF0AC06DE2BD
:10311000C8010E948817EC01B7FAB094B7F8B094D0
:1031200002C0C0E0D0E0E12C60E070E080E09FE30E
:1031300007C020E030E040E251E40E94851BE394A8
:10314000EF10F7CF262F372F482F592FC501B40185
:103150000E941D1B762E872E982EA92E0E94F21BF0
:10316000B62EC72ED82EE92E0E941E1C9B01AC0144
:10317000672D782D892D9A2D0E941C1BA62E972E27
:10318000882E792E2AE04B2D5C2D6D2D7E2DC801C9
:103190000E94B917C80FD91FFF20B9F164E771E089
:1031A000C8010E947617C80FD91F2FC020E030E059
:1031B00040E251E46A2D792D882D972D0E94D01C74
:1031C000762EC72ED82EE92E0E94ED1B4B01AA2485
:1031D00097FCA094BA2C2AE030E0B501A401C80104
:1031E0000E942218C80FD91FC501B4010E94201CDB
:1031F0009B01AC01672D7C2D8D2D9E2D0E941C1BEB
:10320000A62E972E882E792EFA94F110CFCFCE01CC
:10321000DF91CF911F910F91FF90EF90DF90CF90B2
:10322000BF90AF909F908F907F9008950C946D18F1
:103230000F931F93CF93DF93EC010E946D188C01C5
:10324000CE010E948F179801280F391FC901DF9105
:10325000CF911F910F9108950E94B0140E941D08F4
:10326000C8E0DAE10E943D082097E1F30E94081AC5
:10327000F9CFFC0184859585FC01E05CFF4F20813E
:103280003181FC01EE5BFF4F80819181281B390B5E
:103290002F733327C9010895FC0184859585FC01AE
:1032A000E05CFF4F40815181FC01EE5BFF4F2081CC
:1032B00031814217530741F00190F081E02DE80F72
:1032C000F91F208130E002C02FEF3FEFC9010895C0
:1032D000FC0184859585FC01E05CFF4F40815181B4
:1032E000FC01EE5BFF4F208131814217530781F0D3
:1032F000A081B181A80FB91F8C91208131812F5FEE
:103300003F4F2F73332731832083282F30E002C0B3
:103310002FEF3FEFC9010895FC0186859785FC01D9
:10332000E05CFF4FDC01AE5BBF4F408151812D91CE
:103330003C91119742175307C1F70895CF93DF933C
:10334000FC0186859785DC01A05CBF4F2D913C91E7
:1033500011972F5F3F4F2F733327EC01CE5BDF4F69
:103360004881598124173507D9F30D90BC91A02DC0
:10337000A80FB91F6C93A685B785A05CBF4F1196A7
:103380003C932E93A689B7892C9181E090E0058C1F
:1033900002C0880F991F0A94E2F7282B2C9381E032
:1033A00090E0DF91CF91089508951F920F920FB68C
:1033B0000F9211242F933F934F938F939F93EF93EB
:1033C000FF934091C6008091AC039091AD030196AC
:1033D0008F7399272091AE033091AF038217930723
:1033E00059F0E091AC03F091AD03E459FC4F4083F8
:1033F0009093AD038093AC03FF91EF919F918F91D8
:103400004F913F912F910F900FBE0F901F901895E5
:1034100089E093E00E943919892B11F00C94D4199A
:1034200008951F920F920FB60F9211242F933F937E
:103430008F939F93EF93FF932091680330916903DB
:1034400080916A0390916B032817390731F48091BA
:10345000C1008F7D8093C10014C0E0916A03F09198
:103460006B03E85DFC4F208180916A0390916B03B0
:1034700001968F73992790936B0380936A0320932F
:10348000C600FF91EF919F918F913F912F910F90E7
:103490000FBE0F901F901895CF92DF92EF92FF9280
:1034A000CF93DF93EC016A017B01411581EE580750
:1034B00061057105F9F0EC89FD8981E090E00E8CE1
:1034C00002C0880F991F0A94E2F7808360E079E0D8
:1034D0008DE390E0A70196010E94B71E21503109AB
:1034E000410951095695479537952795211580E152
:1034F000380798F0EC89FD89108260E874E88EE165
:1035000090E0A70196010E94B71E215031094109A0
:1035100051095695479537952795E889F98930835C
:10352000EA89FB892083EE89FF89408181E090E070
:103530009C010A8C02C0220F331F0A94E2F7422B2F
:103540004083EE89FF8940819C010B8C02C0220FD1
:10355000331F0A94E2F7422B4083EE89FF894081B2
:103560009C010C8C02C0220F331F0A94E2F7422BFD
:103570004083EE89FF8920810D8C02C0880F991F3E
:103580000A94E2F7809582238083DF91CF91FF90A8
:10359000EF90DF90CF90089510920C0310920B03E0
:1035A00088EE93E0A0E0B0E080930D0390930E03CB
:1035B000A0930F03B09310038AE791E090930A035E
:1035C000809309038CE693E0909316038093150390
:1035D00088E293E0909318038093170385EC90E0C2
:1035E00090931A038093190384EC90E090931C034A
:1035F00080931B0380EC90E090931E0380931D0347
:1036000081EC90E09093200380931F0386EC90E080
:10361000909322038093210384E08093230383E02B
:103620008093240387E08093250385E0809326031D
:1036300081E08093270308955058BB27AA270ED016
:1036400075C166D130F06BD120F031F49F3F11F499
:103650001EF45BC10EF4E095E7FB51C1E92F77D171
:1036600080F3BA17620773078407950718F071F49F
:103670009EF58FC10EF4E0950B2EBA2FA02D0B01F5
:10368000B90190010C01CA01A0011124FF27591BA7
:1036900099F0593F50F4503E68F11A16F040A22FAD
:1036A000232F342F4427585FF3CF4695379527951E
:1036B000A795F0405395C9F77EF41F16BA0B620B1D
:1036C000730B840BBAF09150A1F0FF0FBB1F661F64
:1036D000771F881FC2F70EC0BA0F621F731F841FA7
:1036E00048F4879577956795B795F7959E3F08F0CD
:1036F000B3CF9395880F08F09927EE0F979587958C
:103700000895D9D008F481E008950CD00FC107D1F5
:1037100040F0FED030F021F45F3F19F0F0C05111BD
:1037200039C1F3C014D198F39923C9F35523B1F3E8
:10373000951B550BBB27AA2762177307840738F020
:103740009F5F5F4F220F331F441FAA1FA9F333D07F
:103750000E2E3AF0E0E830D091505040E695001C33
:10376000CAF729D0FE2F27D0660F771F881FBB1FEF
:10377000261737074807AB07B0E809F0BB0B802DC9
:10378000BF01FF2793585F4F2AF09E3F510568F015
:10379000B6C000C15F3FECF3983EDCF386957795A9
:1037A0006795B795F7959F5FC9F7880F911D969517
:1037B000879597F90895E1E0660F771F881FBB1F73
:1037C000621773078407BA0720F0621B730B840B20
:1037D000BA0BEE1F88F7E095089504D06894B111F4
:1037E000D9C00895BCD088F09F5790F0B92F992781
:1037F000B751A0F0D1F0660F771F881F991F1AF0FC
:10380000BA95C9F712C0B13081F0C3D0B1E00895C4
:10381000C0C0672F782F8827B85F39F0B93FCCF345
:10382000869577956795B395D9F73EF490958095F1
:10383000709561957F4F8F4F9F4F0895E89409C011
:1038400097FB3EF490958095709561957F4F8F4FD3
:103850009F4F9923A9F0F92F96E9BB279395F695E9
:10386000879577956795B795F111F8CFFAF4BB0F67
:1038700011F460FF1BC06F5F7F4F8F4F9F4F16C0CB
:10388000882311F096E911C0772321F09EE8872F55
:10389000762F05C0662371F096E8862F70E060E011
:1038A0002AF09A95660F771F881FDAF7880F96958A
:1038B000879597F90895990F0008550FAA0BE0E82E
:1038C000FEEF16161706E807F907C0F012161306E2
:1038D000E407F50798F0621B730B840B950B39F422
:1038E0000A2661F0232B242B252B21F408950A2688
:1038F00009F4A140A6958FEF811D811D089597F9C8
:103900009F6780E870E060E008959FEF80EC089585
:1039100000240A94161617061806090608950024AE
:103920000A9412161306140605060895092E039428
:10393000000C11F4882352F0BB0F40F4BF2B11F49C
:1039400060FF04C06F5F7F4F8F4F9F4F089557FDFB
:103950009058440F551F59F05F3F71F04795880FFD
:1039600097FB991F61F09F3F79F087950895121694
:1039700013061406551FF2CF4695F1DF08C0161640
:1039800017061806991FF1CF8695710561050894F1
:103990000895E894BB2766277727CB0197F9089508
:1039A0000BD0C4CFB5DF28F0BADF18F0952309F0AB
:1039B000A6CFABCF1124EECFCADFA0F3959FD1F3F2
:1039C000950F50E0551F629FF001729FBB27F00DCD
:1039D000B11D639FAA27F00DB11DAA1F649F662722
:1039E000B00DA11D661F829F2227B00DA11D621F71
:1039F000739FB00DA11D621F839FA00D611D221F2B
:103A0000749F3327A00D611D231F849F600D211D0E
:103A1000822F762F6A2F11249F5750408AF0E1F0B1
:103A200088234AF0EE0FFF1FBB1F661F771F881FFA
:103A300091505040A9F79E3F510570F060CFAACF3A
:103A40005F3FECF3983EDCF3869577956795B795E5
:103A5000F795E7959F5FC1F7FE2B880F911D96950F
:103A6000879597F90895FA01EE0FFF1F309621050B
:103A7000310599F16115710561F48038BFE39B0749
:103A800049F168949038810561F08038BFEF9B0759
:103A900041F0992342F5FF3FE1053105210511F180
:103AA000E8940894E795D901AA2329F4AB2FBE2FF7
:103AB000F85FD0F310C0FF5F70F4A695E0F7F73918
:103AC00050F019F0FF3A38F49F779F930CD00F9085
:103AD00007FC905808953EF018CF60E070E080E851
:103AE0009FE308954FE79F775F934F933F932F9303
:103AF0009ED02F913F914F915F9152DF05C019F4F5
:103B00000EF0FDCE46CF01CF2ADFC8F39638C0F7BE
:103B100007F80F92E8942BE33AEA48EB5FE74EDFB1
:103B20000F920F920F924DB75EB70F92C0D0E8E69A
:103B3000F0E016D04F915F91EF91FF91E595EE1F68
:103B4000FF1F49F0FE57E0684427EE0F441FFA9527
:103B5000E1F74195550B32D00F9007FE26C008952E
:103B6000DF93CF931F930F93FF92EF92DF927B012E
:103B70008C01689405C0DA2EEF011EDFFE01E89487
:103B8000A5912591359145915591AEF3EF0166DDF3
:103B9000FE019701A801DA9479F7DF90EF90FF908A
:103BA0000F911F91CF91DF9108959B01AC0160E0CF
:103BB00070E080E89FE3A9CDA2CEACC0D0DEE8F3F0
:103BC0009923D9F3940F511DBBF39150504094F0B9
:103BD00059F0882332F0660F771F881F91505040AC
:103BE000C1F79E3F510544F7880F911D9695879523
:103BF00097F908955F3FACF0983E9CF0BB278695FF
:103C000077956795B79508F4B1609395C1F7BB0FA9
:103C100058F711F460FFE8CF6F5F7F4F8F4F9F4FD2
:103C2000E3CFB8CE0EF076C070CE689468CE97DE43
:103C3000C8F39923D1F3C6F3DF93CF931F930F9368
:103C4000FF92C92FDD2788232AF02197660F771F5F
:103C5000881FDAF720E030E040E85FEB9FE3883927
:103C600020F0803E30F021968F77E7DCE0E9F0E04D
:103C700003C0E3DCEDEBF0E073DF8B01BE01EC0190
:103C8000FB2E6F5771097595771F880B990BD8DD3F
:103C900028E132E741E35FE38FDEAF2D9801AE010B
:103CA000FF900F911F91CF91DF91D8DC3FCEFA01A9
:103CB000DC01AA0FBB1F9B01AC01BF5728F42227D0
:103CC0003327442750781FC0B75188F4AB2F002406
:103CD000469537952795011CA395D2F3002069F0EE
:103CE000220F331F441FB395DAF30DD0A5CC6130FA
:103CF0007105A0E88A07B94630F49B01AC0166273C
:103D0000772788279078309621F02083318342836B
:103D1000538308959F3F31F0915020F48795779514
:103D20006795B795880F911D9695879597F9089592
:103D30000E94F51EA59F900DB49F900DA49F800D2D
:103D4000911D1124089597FB072E16F4009407D0B7
:103D500077FD09D00E94011F07FC05D03EF4909525
:103D600081959F4F0895709561957F4F0895A1E2C9
:103D70001A2EAA1BBB1BFD010DC0AA1FBB1FEE1FE5
:103D8000FF1FA217B307E407F50720F0A21BB30B30
:103D9000E40BF50B661F771F881F991F1A9469F7AC
:103DA00060957095809590959B01AC01BD01CF0108
:103DB0000895052E97FB16F4009407D057FD0DD0FB
:103DC0000E94B71E07FC09D07EF4909580957095EF
:103DD00061957F4F8F4F9F4F089550954095309537
:103DE00021953F4F4F4F5F4F0895A29FB001B39F62
:103DF000C001A39F01D0B29F700D811D1124911DA0
:103E00000895AA1BBB1B51E107C0AA1FBB1FA61721
:103E1000B70710F0A61BB70B881F991F5A95A9F773
:103E200080959095BC01CD010895EE0FFF1F059080
:103E3000F491E02D09940F931F93CF93DF93689F24
:103E40008001699F100D789F100D1124C8010E94F8
:103E5000391FC82FD92F209731F0A80160E070E0FA
:103E60008C2F0E947020CE01DF91CF911F910F9176
:103E700008950F931F93CF93DF938230910510F431
:103E800082E090E0E091B203F091B30320E030E0F3
:103E9000C0E0D0E023C04081518148175907A8F005
:103EA0004817590761F482819381209719F09B8309
:103EB0008A832EC09093B3038093B20329C0211547
:103EC000310529F04217530710F0A90102C0BE01C5
:103ED000DF0102811381EF019A01F8013097D9F6D1
:103EE0002115310509F1281B390B2430310590F4D7
:103EF00012968D919C9113976115710521F0FB012C
:103F00009383828304C09093B3038093B203FD0133
:103F1000329644C0FD01E20FF31F8193919322502A
:103F200031092D933C933AC02091B0033091B103F5
:103F3000232B41F420910201309103013093B1030E
:103F40002093B0032091000130910101211531052A
:103F500041F42DB73EB74091040150910501241B57
:103F6000350BE091B003F091B103E217F307A0F431
:103F70002E1B3F0B2817390778F0AC014E5F5F4FBF
:103F80002417350748F04E0F5F1F5093B10340933D
:103F9000B0038193919302C0E0E0F0E0CF01DF91A4
:103FA000CF911F910F910895EF92FF920F931F935E
:103FB000CF93DF93009709F48EC0DC01129713961C
:103FC0001C921E921297E090B203F090B303E1149A
:103FD000F10489F42D913C911197280F391F80919C
:103FE000B0039091B1038217930789F5B093B103A1
:103FF000A093B00370C0E70120E030E001C0EA0107
:10400000CA17DB0738F44A815B819E0141155105CF
:10401000B1F722C0AC0142505109FA01D383C283E7
:1040200000811181BC01600F711F6C177D0761F465
:1040300068817981600F711F6E5F7F4F718360832C
:104040006A817B81738362832115310529F4B093E2
:10405000B303A093B2033FC0F901B383A283E90184
:1040600049915991C40FD51FAC17BD0771F4DC01FC
:104070009E918E91840F951F029691838083129654
:104080008D919C91139793838283A0E0B0E002C04E
:10409000D7017C01F701828193810097C9F7C7019D
:1040A000029620813181820F931F2091B0033091BD
:1040B000B1032817390779F4109729F41092B30344
:1040C0001092B20304C013961C921E921297F092A3
:1040D000B103E092B003CDB7DEB7E6E00C948320E5
:1040E000DC0101C06D9341505040E0F708952A88EB
:1040F000398848885F846E847D848C849B84AA84FC
:10410000B984C884DF80EE80FD800C811B81AA8188
:10411000B981CE0FD11D0FB6F894DEBF0FBECDBF53
:08412000ED010895F894FFCFB2
:104128000000B40320000300307500000100010105
:10413800000A006400E8033F065B4F666D7D077F59
:104148006F777C395E797152656164206661696C4C
:104158000052656164792100447573742073656E3B
:10416800736F7220537461727465642100447573AF
:10417800742073656E736F722053746F707065640A
:1041880021002C00000000003E111011B310BC10DB
:10419800D010E0102E00000000009E194E173919AB
:0641A80068194C198C1986
:00000001FF
