:100000000C94A4000C9432160C945F160C94CC0043
:100010000C94CC000C94CC000C94CC000C94CC0030
:100020000C94CC000C94CC000C94CC000C94CC0020
:100030000C94CC000C94CC000C94CC000C94CC0010
:100040000C94CD130C94CC000C94A8190C94E419C6
:100050000C94CC000C94CC000C94CC000C94CC00F0
:100060000C949D120C94CC0007634236B79BD8A722
:100070001A39685618AEBAAB558C1D3CB7CC5763CD
:10008000BD6DEDFD753EF6177231BF000000803F7B
:1000900008000000BE922449123EABAAAA2ABECD97
:1000A000CCCC4C3E00000080BEABAAAAAA3E000009
:1000B0000000BF000000803F000000000008417801
:1000C000D3BB4387D1133D190E3CC3BD4282AD2B38
:1000D0003E68EC8276BED98FE1A93E4C80EFFFBE30
:1000E00001C4FF7F3F000000000000000007000285
:1000F00001000003040600000000000000000102EF
:1001000004081020408001020408102001020408A5
:100110001020040404040404040402020202020283
:10012000030303030303000000002300260029004B
:1001300000000000250028002B0000000000240023
:1001400027002A00AC119F1A11241FBECFEFD8E060
:10015000DEBFCDBF11E0A0E0B1E0EEECF0E402C004
:1001600005900D92A237B107D9F713E0A2E7B1E0ED
:1001700001C01D92A03AB107E1F711E0C8E4D1E057
:1001800004C02297FE010E94EA1EC434D107C9F7B9
:100190000E94FF180C9465200C940000CF93DF930D
:1001A000EC01862F6883498360E00E94E81460E0D8
:1001B00089810E94E81460E088810E94201560E037
:1001C0008981DF91CF910C942015683010F4685F1D
:1001D00001C06FE0FC016283089561E0FC01818150
:1001E0000E94E81482E390E00C947914CF93DF939B
:1001F000EC0161E089810E94E81482E390E00E94B2
:10020000791460E088810E94E81482E390E00E9403
:10021000791460E089810E94E81482E390E0DF9124
:10022000CF910C9479140F931F93CF93DF93EC012C
:10023000062F18E061E088810E94E81482E390E0D4
:100240000E94791400FF02C060E001C061E0898172
:100250000E94E81482E390E00E94791460E08881B3
:100260000E94E81482E390E00E94791406951150F0
:1002700009F761E088810E94E81460E089810E94AA
:10028000E81482E390E00E94791460E088810E9483
:10029000E81482E390E00E94791489810E94571546
:1002A000182F811104C061E089810E94E81482E363
:1002B00090E00E94791461E088810E94E81482E352
:1002C00090E00E94791481E0111101C080E0DF917B
:1002D000CF911F910F910895CF92DF92EF92FF92ED
:1002E0000F931F93CF93DF9300D0CDB7DEB76C0190
:1002F000F62EE42E29837A830E94ED0060E4C60185
:100300000E941301C6010E94F600C6010E94ED0082
:100310002981622F63706054C6010E9413010F2D62
:100320007A81172F06C0F80161918F01C6010E94E2
:100330001301802F8F198E15B0F3C6010E94F600AD
:10034000C6010E94ED00F60162816058C6010E945C
:100350001301C6010F900F90DF91CF911F910F9164
:10036000FF90EF90DF90CF900C94F6004F925F9249
:100370006F927F928F929F92AF92BF92CF92DF92B5
:10038000EF920F931F93CF93DF9300D000D0CDB7A0
:10039000DEB73C016B01322F202F87E1A82E81E0D0
:1003A000B82E88248394912C8C0E9D1EF40101E0BC
:1003B0001FE3D5015E904E905D01C601B2010E941F
:1003C000761E6115710561F4411106C0002321F00C
:1003D0008E2F8819833011F4108313C0108211C03E
:1003E000DB01AF70BB27A95EBE4F8C918083649DFB
:1003F000C001659D900D749D900D1124C81AD90AF5
:1004000000E0EE2039F08E2F8819813019F48081B8
:10041000806880833196BFE0AB16B1E0BB0649F639
:1004200084E090E0831B9109BE016F5F7F4F680FEE
:10043000791F432FC3010E946C010F900F900F9002
:100440000F90DF91CF911F910F91EF90DF90CF90A0
:10045000BF90AF909F908F907F906F905F904F90E4
:1004600008956F70E62FF0E0E95EFE4F80810895F9
:10047000FC0181E09081911101C080E00895CF934B
:10048000DF93EC01862F6E834F83288791E09D8751
:1004900060E00E94E81461E08E810E9420151986B8
:1004A0001A861B861C86DF91CF910895DF92EF920A
:1004B000FF920F931F93CF93DF93EC0161E08E8146
:1004C0000E9420156AEF70E080E090E00E945314D3
:1004D0000E94171409851A852B853C8560177107C2
:1004E0008207930720F419861A861B861C862D85A1
:1004F000211111C009851A852B853C85DC01CB01B2
:10050000801B910BA20BB30B803D9740A105B10559
:1005100010F481E073C01D860E94171469877A87E2
:100520008B879C871C821B821A821982188261E049
:100530008E810E94E81460E08E810E94201564E1A3
:1005400070E080E090E00E945314F89461E08E81A6
:100550000E94201588E290E00E94791460E08E816C
:100560000E94E814F12CD12C81E009C0E39481E0D1
:1005700090E00E9479148FEFE81204C009C0E12CCA
:10058000082F10E08E810E9457158017910771F394
:100590008E810E9457159FEFE916C9F023E02F15B1
:1005A00090F4F0FC10C09D2D969596959695FE01C1
:1005B000E90FF11D9081990F908328852E1510F475
:1005C00091609083D394F39495E5F912D8CF789401
:1005D00027E22D1590F42C8130E04881898190E04C
:1005E000840F911D4A81840F911D4B81840F911DB1
:1005F00099272817390709F48CCF80E0DF91CF9134
:100600001F910F91FF90EF90DF900895EF92FF926E
:100610000F931F93CF93DF93EC010E945602882320
:1006200091F18F818B3029F070F18551823058F52E
:1006300007C0688170E080E090E00E94F11B2DC04F
:10064000688170E080E090E00E94F11B20E030E0E3
:1006500040E853E40E94A31C7B018C01698170E097
:1006600080E090E00E94F31B9B01AC016E2D7F2D7A
:10067000802F912F0E94F01A20E030E040E251E4F8
:100680000E94581B0AC067E271E085EF92E00E9469
:10069000591760E070E080EC9FE7DF91CF911F91E8
:1006A0000F91FF90EF900895CF92DF92EF92FF921B
:1006B0000F931F93CF93DF938C01C62F0E94560296
:1006C000882309F477C0F80187818B3039F008F46A
:1006D00071C08551823008F06DC01DC0F801628183
:1006E00070E080E090E00E94F11BB62FA72FF82F5A
:1006F000E92F462F572F682F792FCB01BA01CC2332
:1007000009F462C020E030E040E151E46B2F7A2F21
:100710008F2F9E2F37C0F801D2816D2F6F7770E039
:1007200080E090E00E94F31B20E030E040E853E4DA
:100730000E94A31C6B017C01F801638170E080E0E2
:1007400090E00E94F31B9B01AC016C2D7D2D8E2D42
:100750009F2D0E94F01A20E030E040E251E40E9418
:10076000581B472F382F292F862F942FA32FB22FB6
:10077000BC01CD01D7FD9058CC2331F120E030E011
:1007800040E151E40E94A31C20E030E040EA50E444
:100790000E94581B20E030E040E052E40E94F01A32
:1007A000472F382F292F862F942FA32FB22FBC012C
:1007B000CD010AC067E271E085EF92E00E9459170F
:1007C00060E070E080EC9FE7DF91CF911F910F9187
:1007D000FF90EF90DF90CF90089584E292E00C9428
:1007E0005111CF93DF93EC0168E670E084E292E070
:1007F0000E948A1160E084E292E00E94111184E27A
:1008000092E00E949F1147E050E068E670E084E2C9
:1008100092E00E947D1184E292E00E948F10382FB6
:100820003695369536953E70232F220F220F230FD3
:100830008F709927280F288384E292E00E948F10FE
:10084000282F22952F708F7099273AE0239F800DD3
:100850001124898384E292E00E948F10382F36950C
:10086000369536953670232F220F220F230F8F7067
:100870009927280F2A8384E292E00E948F10282F64
:1008800022952F708F7099273AE0239F800D1124B5
:100890008B8384E292E00E948F10282F22952F7084
:1008A0008F7099273AE0239F800D11248C8384E276
:1008B00092E00E948F10282F22952F708F70992719
:1008C0003AE0239F800D11248D8384E292E00E9400
:1008D0008F10282F22952F708F7099273AE0239F31
:1008E000800D11248E831F82DF91CF910895CF93C5
:1008F000DF93EC01862F688319824A831B822C8345
:100900001E821D8261E00E94E81461E08A81DF910D
:10091000CF910C94E8141F93CF93DF93EC0160E028
:100920008A810E9420158AE090E00E94791414E0E8
:1009300061E08A810E94201560E08A810E94201572
:100940001150B1F7DF91CF911F910895FF920F934E
:100950001F93CF93DF93EC018B0190E1F92E612F70
:10096000661F6627661F8A810E94201588810E9463
:10097000571561E0892B09F060E088810E942015FD
:10098000000F111FFA9459F7DF91CF911F910F912A
:10099000FF900895EF92FF920F931F93CF93DF93F1
:1009A000EC017B01CB0193709E838D8360E070E04E
:1009B000CE010E94A60400E010E08C81882351F053
:1009C000C701002E02C0880F991F0A94E2F791FF19
:1009D0000DC009C0C701002E02C0969587950A94E4
:1009E000E2F780FF03C06FEF70E002C060E070E0EC
:1009F000CE010E94A6040F5F1F4F0A301105E9F6D1
:100A000060E070E0CE010E94A60460E070E0CE01DC
:100A10000E94A604CE01DF91CF911F910F91FF900C
:100A2000EF900C948B04662321F06B3018F06AE091
:100A300001C061E0262F215061E070E002C0660F26
:100A4000771F2A95E2F7FC012581368162277327FB
:100A5000768365830C94CA04662321F06B3018F00A
:100A60006AE001C061E0562F5150FC0125813681BA
:100A700061E070E002C0660F771F5A95E2F74423E9
:100A800019F0622B732B04C0609570956223732359
:100A9000FC01768365830C94CA046B3008F06AE02D
:100AA0002FEF3FEF02C0220F331F6A95E2F7209528
:100AB0003095FC0136832583B9010C94CA04FC01EE
:100AC0006483658176810C94CA04FC0185819681DA
:100AD0000895FC0181E020813181232B09F480E01D
:100AE0000895CF93DF93EC0160E088810E94201588
:100AF00084E190E00E94791461E088810E942015D1
:100B000084E190E0DF91CF910C9479140F931F93BF
:100B1000CF93DF93EC01062F18E007FF02C061E0DE
:100B200001C060E089810E942015CE010E947105FC
:100B3000000F115091F7DF91CF911F910F91089500
:100B4000EF92FF921F93CF93DF9300D0CDB7DEB724
:100B50007C01162F27FF02C060EC01C060EE26FF6B
:100B6000606147FF686046FF646017FF626016FFC0
:100B70006160C70129834A830E9486052981622F0B
:100B8000C7010E9486054A81642FC7010E9486051D
:100B9000612FC7010F900F90DF91CF911F91FF90B0
:100BA000EF900C9486057F928F929F92AF92BF92A6
:100BB000CF92DF92EF92FF920F931F93CF93DF9329
:100BC000EC01162F942E822E60E00E94860560E0D4
:100BD000CE010E94860560E0CE010E94860560E09D
:100BE000CE010E94860583E0189F700111246701E1
:100BF0008FEFC81AD80A570182E0A80EB11C712CD9
:100C00001FC071120FC0EB81FC81EE0DFF1D9082A1
:100C1000EB81FC81EC0DFD1D8082EB81FC81EA0DF6
:100C2000FB1D0083EB81FC8183E0789EE00DF11DCC
:100C30001124228141816081CE010E94A00573941C
:100C40008A817816F0F260E0CE010E94860560E0AD
:100C5000CE010E94860560E0CE010E94860560E01C
:100C6000CE01DF91CF911F910F91FF90EF90DF9018
:100C7000CF90BF90AF909F908F907F900C948605FF
:100C80000F931F93CF93DF93EC01862F68834983E3
:100C90002A8361E00E94E81461E089810E94E814DF
:100CA0008A8161E070E023E0829FC00111240E94EC
:100CB000EE1E8B839C8310E008C000E020E040E043
:100CC000612FCE010E94D3051F5F8A811817A8F3F8
:100CD000DF91CF911F910F910895FC0182810895BA
:100CE0001F93CF93DF931F92CDB7DEB7162F84E209
:100CF00092E049830E9451116CE470E084E292E03A
:100D00000E948A11612F84E292E00E9411114981B0
:100D1000642F84E292E00E94111184E292E00F902D
:100D2000DF91CF911F910C949F11462F67E00C9497
:100D30007006462F68E00C947006CF93DF93EC01A9
:100D400060E00E94950660E0CE010E94990661E095
:100D5000CE01DF91CF910C9495064F925F926F92E6
:100D60007F928F929F92AF92BF92CF92DF92EF923B
:100D7000FF920F931F93CF93DF9300D01F92CDB7B5
:100D8000DEB75B016A01790180E48B838A83898302
:100D90000E9417142B013C010DC00E941714641906
:100DA000750986099709653F71408105910514F021
:100DB00080E06EC084E292E00E9486101816190648
:100DC00064F384E292E00E948F1043E050E06CE410
:100DD00070E084E292E00E947D110E9417142B01C2
:100DE0003C018E010F5F1F4F48012DC0C8018819BB
:100DF00099090397D4F40E9417142B013C0111C0E8
:100E000084E292E00E948F10F80180830E94171400
:100E10006419750986099709633371058105910580
:100E20003CF6F8018081803458F70E9417140F5F58
:100E30001F4F6419750986099709653F714081053F
:100E400091050CF0B5CF84E292E00E948610892BC8
:100E500069F69981892F880F880F95FD8D5F85959B
:100E60008595F50180839A81892F880F880F95FDDC
:100E70008D5F85958595F60180839B81892F880FED
:100E8000880F95FD8D5F85958595F701808381E0BD
:100E90000F900F900F90DF91CF911F910F91FF90C6
:100EA000EF90DF90CF90BF90AF909F908F907F900A
:100EB0006F905F904F9008958091A9019091AA0141
:100EC000019731F46091A40184E292E00E94111133
:100ED0008091A9019091AA018330910529F0873072
:100EE000910511F0C89741F443E050E06BE971E0DF
:100EF00084E292E00E94E3108091A9019091AA01FE
:100F00008830910511F0449741F444E050E06BE9DA
:100F100071E084E292E00E94E3108091A901909137
:100F2000AA018036910541F445E050E066E971E0A0
:100F300084E292E00E94E3108091A9019091AA01BD
:100F40008E31910511F0889741F449E050E06BE94A
:100F500071E084E292E00C94E3100895CF93DF9364
:100F600022C084E292E00E948610049741F410921D
:100F7000A6011092A5011092A8011092A701C0919C
:100F8000A701D091A80184E292E00E948F10FE0197
:100F9000EE0FFF1FE755FE4F918380832196D0937C
:100FA000A801C093A70184E292E00E948610892BD9
:100FB000C1F6DF91CF910895CF92DF92EF92FF9229
:100FC0000F931F93809106010E945715892B59F4A6
:100FD0000E94291460938401709385018093860197
:100FE0009093870122C00E942914009184011091DE
:100FF00085012091860130918701C0908801D090B1
:101000008901E0908A01F0908B01C01AD10AE20AAE
:10101000F30AC60ED71EE81EF91EC0928801D092B0
:101020008901E0928A01F0928B011F910F91FF904C
:10103000EF90DF90CF90089540E855E260E070E0D7
:1010400085EF92E00E941F1A64E070E084E292E073
:101050000E946E116EEA77E084E292E00E94A21193
:101060006CE577E084E292E00E94A71161E371E011
:1010700085EF92E00C9478174F925F926F927F9277
:101080008F929F92AF92BF92CF92DF92EF92FF9298
:101090000F931F93CF93DF93CDB7DEB72C970FB687
:1010A000F894DEBF0FBECDBF8091A7019091A8013B
:1010B000049709F05FC58091A5019091A601892B45
:1010C00009F058C581E090E09093A6018093A501B6
:1010D0008091A9019091AA01019731F48091AB010F
:1010E0000E9457158093A4018091A9019091AA01B3
:1010F000029731F46091AD018091AB010E942015FF
:101100008091A9019091AA010397A9F48091AB0164
:101110000E94801590939501809394019C0197FF04
:1011200002C021503F4F30939C0160E071E00E946B
:10113000761E80939D018091A9019091AA01049748
:1011400041F46091AD017091AE018091AB010E94BC
:10115000A1158091A9019091AA01059731F46091A0
:10116000AD018091AB010E94E8148091A90190919A
:10117000AA01079709F042C08091AB019091AC01A0
:10118000809374019093750161E00E94E81460E01F
:10119000809174010E94201582E090E00E947914F1
:1011A00061E0809174010E94201585E090E00E942A
:1011B000791460E0809174010E94201560E08091B4
:1011C00074010E94E81420E432E44FE050E061E052
:1011D000809174010E948C162AE330E040E050E0D8
:1011E0000E94AC1ECA01B90120E031E040E050E0AD
:1011F0000E94AC1E20939C0160939D018091A901E7
:101200009091AA018830910539F481E080939C0186
:1012100082E080939D0121C0449709F5809193015C
:10122000811107C083E292E00E949D0681E08093D5
:10123000930121E931E040E951E06FE871E083E298
:1012400092E00E94AD0680918F0180939C01809175
:10125000900180939D018091910180939E018091E6
:10126000A9019091AA014E9769F58091920181118F
:1012700007C08BE192E00E94ED0381E08093920130
:101280008BE192E00E94F10380911D0280939C010A
:1012900080911C0280939D0180911B0280939E018E
:1012A0008091200280939F0180911F028093A00172
:1012B000909121029093A1018093A20180911E023E
:1012C0008093A3018091A9019091AA01889709F0C8
:1012D00059C08091AD019091AE01009719F426E0BC
:1012E0004BE005C08130910549F426E046E160916C
:1012F000AB018DE092E00E943F0208C08230910570
:1013000019F426E045E1F3CF0397D9F360E08DE0CF
:1013100092E00E94540369877A878B879C878DE0CF
:1013200092E00E9406036D837E838F8398871092DC
:10133000730110927201FE01399680E090E00196EF
:101340002191DC01A556BE4F2C9384309105BCF34E
:1013500084E090E090937301809372010196DC0128
:10136000A556BE4FE5E0F0E0EC0FFD1FE80FF91FBA
:10137000359720812C938830910584F390937301E5
:10138000809372018091A9019091AA01C297D9F42A
:101390008091AB019091AC01482F21E06091AD01AB
:1013A0007091AE01672B09F420E0642F6F5FFC01A0
:1013B000329737E03E9FC0013F9F900D11248D5121
:1013C0009E4F0E9477048091A9019091AA01C39732
:1013D00091F42091AB013091AC012250310947E0EA
:1013E000429FC001439F900D11248D519E4F0E943A
:1013F00069058111AAC48091A9019091AA01C4979D
:1014000091F42091AB013091AC012250310917E0E9
:10141000129FC001139F900D11248D519E4F0E9469
:1014200069058111ABC48091A9019091AA01C5976A
:1014300091F42091AB013091AC012250310947E089
:10144000429FC001439F900D11248D519E4F0E94D9
:1014500069058111A5C48091A9019091AA01C6973F
:1014600091F42091AB013091AC012250310917E089
:10147000129FC001139F900D11248D519E4F0E9409
:1014800069058111A8C48091A9019091AA01C7970B
:1014900091F42091AB013091AC012250310917E059
:1014A000129FC001139F900D11248D519E4F0E94D9
:1014B00069058111A2C48091A9019091AA01C897E0
:1014C00091F42091AB013091AC012250310917E029
:1014D000129FC001139F900D11248D519E4F0E94A9
:1014E00069058111A3C48091A9019091AA01863454
:1014F000910591F46091AB017091AC01462F4F5F63
:101500009B0122503109C901880F991F820F931F37
:101510008F529E4F0E94CE008091A9019091AA0106
:101520008734910589F42091AB013091AC012250B0
:101530003109C901880F991F820F931F8F529E4F47
:101540000E943802811186C48091A9019091AA015C
:101550008834910589F42091AB013091AC0122507F
:101560003109C901880F991F820F931F8F529E4F17
:101570000E943802811180C48091A9019091AA0132
:101580008934910589F42091AB013091AC0122504E
:101590003109C901880F991F820F931F8F529E4FE7
:1015A0000E943802811185C48091A9019091AA01FD
:1015B0008A34910589F42091AB013091AC0122501D
:1015C0003109C901880F991F820F931F8F529E4FB7
:1015D0000E94380281118AC48091A9019091AA01C8
:1015E0008B34910589F42091AB013091AC012250EC
:1015F0003109C901880F991F820F931F8F529E4F87
:101600000E94380281119AC48091A9019091AA0187
:101610008C34910589F42091AB013091AC012250BA
:101620003109C901880F991F820F931F8F529E4F56
:101630000E94380281119BC48091A9019091AA0156
:101640008D349105A9F52091AB013091AC01225068
:101650003109C901880F991F820F931F8F529E4F26
:101660000E9438028111FBC423C0812F0E94801583
:10167000BC012091AB013091AC0122503109C9016C
:10168000880F991F820F931FE12C00E024E040E0B7
:101690008F529E4F0E94B6016AEF70E080E090E0AA
:1016A0000E9453142FEFC21AD20ACA14DB04ECF2C0
:1016B0008091A9019091AA018E34910589F420911D
:1016C000AB013091AC0122503109C901880F991F3B
:1016D000820F931F8F529E4F0E9438028111CCC4FB
:1016E0008091A9019091AA018F34910589F42091EC
:1016F000AB013091AC0122503109C901880F991F0B
:10170000820F931F8F529E4F0E9438028111CEC4C8
:101710008091A9019091AA018A35910569F480917F
:10172000AB0180938C018091AD0180938D018091FC
:10173000AF0180938E0118C08B359105A9F460919B
:10174000AB017091AC01462F4F5F9B0122503109D4
:1017500055E0529FC001539F900D11242091AD017F
:101760008D549E4F0E9440068091A9019091AA013C
:101770008C35910549F08091A9019091AA018D3590
:10178000910509F0BDC048C06091AB017091AC01FA
:10179000462F4F5F9B012250310955E0529FC001F7
:1017A000539F900D11242091AD018D549E4F0E94A6
:1017B00040060091AF011091B00102FBDD24D0F88A
:1017C000D19401FBCC24C0F8C19401701127102FD3
:1017D0001195E12CF12CA5E0BA2E16C06091AB0159
:1017E0007091AC0162507109B69EC001B79E900D18
:1017F0001124012F2C2D4D2D6E2D8D549E4F0E94A6
:10180000D3053FEFE31AF30A8091AD019091AE0149
:10181000E816F9061CF3AFCF2091AD013091AE016F
:101820008091AB019091AC01232BB1F49C0122502B
:10183000310945E0429FC001439F900D1124009162
:101840008E0120918D0140918C016091AF018D54EA
:101850009E4F0E94D30554C09C012250310945E09F
:10186000429FC001439F900D11248D549E4F0E94B2
:101870006D06E12CF12CC82ED12C15E03DC0209135
:10188000AD013091AE012130310541F48091AF01BD
:101890009091B001E816F906B1F42BC02230310561
:1018A00041F48091AF019091B0018E159F055CF4D9
:1018B00020C023303105E9F48091AF019091B0014F
:1018C000E816F906B4F02091AB013091AC0122503A
:1018D0003109129FC001139F900D112400918E01B8
:1018E00020918D0140918C016E2D8D549E4F0E9450
:1018F000D3058FEFE81AF80AEC14FD040CF4BFCFFF
:101900008091A9019091AA018E35910549F08091AD
:10191000A9019091AA018F35910509F053C05BC0D0
:101920008091AF019091B0011816190634F081E052
:1019300090E09093B0018093AF012091AB01309182
:10194000AC012250310945E0429FC001439F900DF8
:1019500011248D549E4F0E946D06E090AD01F090D1
:10196000AE01C82ED12C15E029C08091AD01909117
:10197000AE019701281B390BC9016091AF0170912D
:10198000B0010E94761E892BB1F42091AB013091F9
:10199000AC0122503109129FC001139F900D1124F8
:1019A00000918E0120918D0140918C016E2D8D54FE
:1019B0009E4F0E94D3053FEFE31AF30AEC14FD0497
:1019C000A4F2A5CF8091A9019091AA01803691053A
:1019D00009F0D0C083C02091AB013091AC012250FE
:1019E000310945E0429FC001439F900D11248D5461
:1019F0009E4F0E946D062091AF013091B001232BC4
:101A000059F133C08091AD019091AE012091AB01AD
:101A10003091AC0122503109E816F90664F4129FA6
:101A2000C001139F900D112400918E0120918D0112
:101A300040918C0108C0129FC001139F900D11248A
:101A400000E020E040E06E2D8D549E4F0E94D305B3
:101A50008FEFE81AF80A05C0E12CF12CC82ED12C22
:101A600015E0EC14FD0474F2ADCFC82ED12C760134
:101A700015E030C08091AD019091AE019601281B18
:101A8000390B8091AB019091AC01E216F3067CF02A
:101A90009C0122503109129FC001139F900D112407
:101AA00000918E0120918D0140918C010BC09C0111
:101AB00022503109129FC001139F900D112400E0A4
:101AC00020E040E06E2D8D549E4F0E94D30521E012
:101AD000E21AF108E114F10469F674CF0091AD0146
:101AE0001091AE0101301105D1F58091AB019091BB
:101AF000AC01809306019093070110937F0100933E
:101B00007E0160E00E94E814809106019091070137
:101B10008230910529F410920D0110920C0106C03B
:101B2000039721F410930D0100930C0141E050E064
:101B30006CED77E080910C010E9402160E94171450
:101B4000609380017093810180938201909383015F
:101B500068E371E085EF92E00E9478170BC00230D5
:101B6000110541F480910C010E94221610927F0110
:101B700010927E0180917E0190917F01019709F082
:101B8000AEC20E9417148090080190900901A090A5
:101B90000A01B0900B010091800110918101209108
:101BA000820130918301601B710B820B930B8616AF
:101BB0009706A806B90608F092C2C0908801D09096
:101BC0008901E0908A01F0908B01109288011092B7
:101BD000890110928A0110928B01C701B6010E94FF
:101BE000F11B2B013C01C501B4010E94F11B20E057
:101BF00030E040E251E40E94A31C9B01AC01C30110
:101C0000B2010E94581B3B018C01862F972DA02FFB
:101C1000B12F80937A0190937B01A0937C01B093C4
:101C20007D0120E030E040E450E4662D772D802FE8
:101C3000912F0E94061D2DEC3CEC4CE85FE30E94C6
:101C4000A31C4B015C01262D372D402F512F662DF3
:101C5000772D802F912F0E94A31C23E333E343E7CA
:101C600050E40E94A31C9B01AC01C501B4010E9479
:101C7000EF1A4B015C0120E030E042E054E4662DB5
:101C8000772D802F912F0E94A31C9B01AC01C501D1
:101C9000B4010E94F01A22E538EB4EE15FE30E94A6
:101CA000F01A609376017093770180937801909396
:101CB00079012AE030E0B701A60185EF92E00E94A9
:101CC000E8176DE471E085EF92E00E9459174091AA
:101CD0007A0150917B0160917C0170917D0122E03D
:101CE00030E085EF92E00E94E9186DE471E085EF45
:101CF00092E00E94591740917601509177016091CE
:101D000078017091790122E030E085EF92E00E9445
:101D1000EB18E6E7F1E080E090E001962191DC012C
:101D2000AA56BE4F2C9384309105BCF39093730157
:101D3000809372010E941714609380017093810157
:101D40008093820190938301CAC161E08091AD01CB
:101D50009091AE01892B09F460E02091AB013091A4
:101D6000AC012250310947E0429FC001439F900DD2
:101D700011248D519E4F0E945F053DCB2091AB01F8
:101D80003091AC0122503109129FC001139F900D78
:101D900011246091AD018D519E4F0E944D0543CBA2
:101DA00041E08091AF019091B001892B09F440E0AE
:101DB0002091AB013091AC012250310957E0529F84
:101DC000C001539F900D11246091AD018D519E4F24
:101DD0000E942C0540CB2091AB013091AC012250E8
:101DE0003109129FC001139F900D11246091AD0124
:101DF0008D519E4F0E94130546CB9091AF0180E01C
:101E00006091AD017091AE01682779272091AB01F7
:101E10003091AC0122503109129FC001139F900DE7
:101E200011248D519E4F0E94CA0445CB2091AB01D5
:101E30003091AC0122503109129FC001139F900DC7
:101E400011248D519E4F0E94650580939C019093B3
:101E50009D0149CB2091AB013091AC012250310959
:101E6000C901880F991F820F931F6091AD018F5296
:101E70009E4F0E94E50068CB9091AF0180E0609199
:101E8000AD017091AE01682779272091AB013091A7
:101E9000AC0122503109C901880F991F820F931F8D
:101EA000E12C00E024E040E08F529E4F0E94B601FA
:101EB00063CB9091AF0180E06091AD017091AE0174
:101EC000682779272091AB013091AC01225031096C
:101ED000C901880F991F820F931FE12C00E024E0B5
:101EE00041E08F529E4F0E94B6015ECB2091AB0124
:101EF0003091AC0122503109C901880F991F820F1E
:101F0000931F6091AF018F529E4F0E9431028983CF
:101F10002091AB013091AC0122503109C901880FE9
:101F2000991F820F931F2091AD0141E0BE016F5FA9
:101F30007F4F8F529E4F0E946C014ECB8091AF011C
:101F400089832091AB013091AC0122503109C90144
:101F5000880F991F820F931F2091AD0141E0BE01B0
:101F60006F5F7F4F8F529E4F0E946C014DCB8091CF
:101F7000AD019091AE010AE010E0B8010E94761E1A
:101F80002091AB013091AC0122503109C901880F79
:101F9000991F820F931F8F529E4F0E943102898397
:101FA0008091AD019091AE01B8010E94761E209102
:101FB000AB013091AC0122503109A901440F551FEA
:101FC000420F531F682FCA018F529E4F0E94310249
:101FD00080688A838091AF019091B001B8010E941E
:101FE000761E2091AB013091AC0122503109C9011C
:101FF000880F991F820F931F8F529E4F0E943102AC
:102000008B838091AF019091B001B8010E94761E40
:102010002091AB013091AC0122503109A901440F4C
:10202000551F420F531F682FCA018F529E4F0E94A7
:1020300031028C832091AB013091AC0122503109E7
:10204000C901880F991F820F931F20E044E0BE0151
:102050006F5F7F4F8F529E4F0E946C01EDCA1091AF
:10206000AD01A090AF01B090B001AA0CBB1CAA0CAE
:10207000BB1CC12CD12C19CB8FEF89838A838B8316
:102080008C832091AB013091AC0122503109C90100
:10209000880F991F820F931F20E044E0BE016F5FFD
:1020A0007F4F8F529E4F0E946C011ACB19821A8269
:1020B0001B821C822091AB013091AC01225031096E
:1020C000C901880F991F820F931F20E044E0BE01D1
:1020D0006F5F7F4F8F529E4F0E946C0119CB2C96E1
:1020E0000FB6F894DEBF0FBECDBFDF91CF911F9129
:1020F0000F91FF90EF90DF90CF90BF90AF909F90A7
:102100008F907F906F905F904F900895209158022C
:1021100030E080915902281B3109C901089580914E
:10212000590290915802891750F4E82FF0E0E65ACE
:10213000FD4F208130E08F5F8093590202C02FEF66
:102140003FEFC9010895E091590280915802E817C4
:1021500030F4F0E0E65AFD4F208130E002C02FEF6E
:102160003FEFC90108950895E0913002F0913102E6
:102170003097E1F030915902209158023217B0F0B7
:1021800040E009C0DC01A20FB31F5C91D901A65A3F
:10219000BD4F5C934F5F242F30E02617370794F331
:1021A0001092590260935802CB0109940895E0916E
:1021B0003202F0913302309729F0109236021092D9
:1021C000350209940895CF92DF92EF92FF920F9318
:1021D0001F93CF93DF937C01CB018A0120913402BE
:1021E000222391F0EB016B01C40ED51E09C0699149
:1021F000D701ED91FC910190F081E02DC701099587
:10220000CC15DD05A1F703C0642F0E946A12C80136
:10221000DF91CF911F910F91FF90EF90DF90CF90C2
:102220000895CF93DF931F92CDB7DEB769832091D6
:1022300034022223D1F020913502203240F021E0F7
:1022400030E0FC013383228320E030E015C0809130
:102250003602E82FF0E0E95CFD4F998190838F5FB3
:10226000809336028093350205C061E0CE0101966D
:102270000E946A1221E030E0C9010F90DF91CF91F6
:102280000895FC011382128248EE53E060E070E092
:10229000448355836683778383E591E091838083CC
:1022A000089510925902109258021092360210921C
:1022B00035020C94B011CF93DF93EC01862F0E946E
:1022C000CE1187ED90E10E94881284EB90E10E948C
:1022D0008312CE01DF91CF910C9451110C945B11BC
:1022E000862F413208F040E26AE572E00E94D21186
:1022F0001092590280935802089521E00C947011B5
:1023000081E080933402609357021092360210925B
:10231000350208950C9480110F93062F21E040910F
:10232000350267E372E0809157020E941712109203
:10233000360210923502109234020F91089561E036
:102340000C948C1170933102609330020895709355
:10235000330260933202089584E292E00C944111BA
:102360001092830281E0809381021092800261E0EA
:1023700082E10E94201561E083E10E942015E9EBD3
:10238000F0E080818E7F808380818D7F808388E4F0
:102390008093B80085E48093BC000895880F8093F3
:1023A000BA000895413208F03FC090918302911124
:1023B000FCCF91E090938302209381022FEF209332
:1023C0007A0210927F02242F215020937E02909354
:1023D000820290918202880F892B809382028091E1
:1023E0008002813041F410928002809182028093B9
:1023F000BB0085EC01C085EE8093BC008091830218
:102400008130E1F380917F02841710F440917F02C4
:1024100024E832E0FB01D90102C08D9181938A2F1B
:10242000821B8417D0F301C040E0842F08950F93DE
:10243000413208F046C0909183029111FCCF92E0A6
:1024400090938302009381029FEF90937A021092FF
:102450007F0240937E02FB0164E872E0DB0102C070
:1024600091919D939A2F961B9417D0F3109282020C
:1024700090918202880F892B809382028091800242
:10248000813041F410928002809182028093BB00DF
:1024900085EC01C085EE8093BC00222321F0809161
:1024A00083028230E1F380917A028F3F61F0809164
:1024B0007A02803251F080917A02803341F483E0D5
:1024C00007C081E005C080E003C082E001C084E075
:1024D0000F910895613298F420918302243089F499
:1024E00060937C02FC0184EA92E0DC0102C021914D
:1024F0002D932A2F281B2617D0F380E0089581E022
:10250000089582E008959093C5028093C4020895CF
:102510009093C7028093C602089585ED8093BC0016
:102520008091BC0084FDFCCF10928302089585EC5D
:102530008093BC001092830208951F920F920FB6F1
:102540000F9211242F933F934F935F936F937F9339
:102550008F939F93AF93BF93EF93FF938091B900B5
:10256000887F803609F49FC058F5883209F45BC033
:1025700090F4803109F452C038F4882309F4F8C08B
:10258000883009F0F9C04AC0883109F44CC0803263
:1025900009F0F2C05CC0803409F46BC038F48033B9
:1025A00009F455C0883309F0E7C054C0803509F4F8
:1025B00054C0883509F462C0883409F0DDC0DAC03F
:1025C000883909F4CBC0A8F4883709F46CC038F412
:1025D000883609F468C0803709F0CEC064C08838F6
:1025E00009F4BCC0803909F464C0803809F0C4C063
:1025F00060C0803B09F48AC038F4803A09F46BC0AB
:10260000883A09F0B9C082C0803C09F4ABC0883C6C
:1026100009F4A8C0883B09F0AFC08DC08091820248
:102620008093BB0012C090917F0280917E02981728
:1026300088F580917F02E82FF0E0EC57FD4F908104
:102640009093BB008F5F80937F0285EC88C080935E
:102650007A0290C080937A0256C080917F02909156
:10266000BB00E82FF0E0EC57FD4F90838F5F809325
:102670007F0290917F0280917E026DC080917F02E7
:102680009091BB00E82FF0E0EC57FD4F90838F5FF7
:1026900080937F028091810281116CC081E08093E0
:1026A000800284EA60C083E08093830210927B0200
:1026B000CCCF80917B02803208F050C080917B02A9
:1026C0009091BB00E82FF0E0E853FD4F90838F5FBF
:1026D00080937B02BACF80917B02803230F4E0910C
:1026E0007B02F0E0E853FD4F10820E948D12609152
:1026F0007B02E091C402F091C50270E088EC92E0A8
:10270000099510927B020E94971236C084E0809354
:10271000830210927D0210927C02E091C602F09139
:10272000C702099580917C02811105C081E08093E8
:102730007C021092A40280917D02E82FF0E0EC551B
:10274000FD4F90819093BB008F5F80937D029091AD
:102750007D0280917C02981708F477CF85E88093FA
:10276000BC000AC085EC8093BC001092830204C0B8
:1027700010927A020E948D12FF91EF91BF91AF915A
:102780009F918F917F916F915F914F913F912F9189
:102790000F900FBE0F901F9018951F920F920FB6BB
:1027A0000F9211242F933F938F939F93AF93BF93D7
:1027B0008091E8029091E902A091EA02B091EB02C7
:1027C0003091F002232F2D5F2D3720F40196A11DAB
:1027D000B11D05C0232F2A570296A11DB11D2093BC
:1027E000F0028093E8029093E902A093EA02B0938A
:1027F000EB028091EC029091ED02A091EE02B0917B
:10280000EF020196A11DB11D8093EC029093ED02A1
:10281000A093EE02B093EF02BF91AF919F918F9181
:102820003F912F910F900FBE0F901F9018950F930F
:102830001F938FB7F8940091E8021091E90220915C
:10284000EA023091EB028FBFB801C9011F910F91CD
:1028500008950F931F939FB7F8940091EC02109185
:10286000ED022091EE023091EF0286B5A89B06C0E2
:102870008F3F21F00F5F1F4F2F4F3F4F9FBF322FD2
:10288000212F102F0027080F111D211D311D42E09F
:10289000000F111F221F331F4A95D1F7B801C9013C
:1028A0001F910F910895CF92DF92EF92FF92CF93F5
:1028B000DF936B017C010E942914EB010EC00E9482
:1028C00029146C1B7D0B683E734038F081E0C81AF8
:1028D000D108E108F108C851DC4FC114D104E1046A
:1028E000F10469F7DF91CF91FF90EF90DF90CF90E7
:1028F0000895019739F0880F991F880F991F029743
:102900000197F1F70895789484B5826084BD84B509
:10291000816084BD85B5826085BD85B5816085BDDA
:10292000EEE6F0E0808181608083E1E8F0E01082F3
:10293000808182608083808181608083E0E8F0E034
:10294000808181608083E1EBF0E08081846080831E
:10295000E0EBF0E0808181608083EAE7F0E0808155
:1029600084608083808182608083808181608083B5
:102970008081806880831092C1000895833069F05F
:1029800028F48130A1F0823011F514C08630B1F006
:102990008730C1F08430D9F404C0809180008F77F3
:1029A00003C0809180008F7D80938000089584B55E
:1029B0008F7702C084B58F7D84BD08958091B0006B
:1029C0008F7703C08091B0008F7D8093B000089511
:1029D000CF93DF9390E0FC01E250FF4F4491FC0164
:1029E000EE5EFE4F8491882341F190E0880F991F9D
:1029F000FC01E65CFE4F25913491D901805D9E4F2C
:102A0000FC0185919491C82FD92F9FB7F8948C9190
:102A1000611106C0409584238C938881842308C06B
:102A2000623041F4242F209582238C938881842B5B
:102A3000888302C0842B8C939FBFDF91CF91089530
:102A40000F931F93CF93DF931F92CDB7DEB7282F3D
:102A500030E0F901E651FF4F8491F901E250FF4F58
:102A60001491F901EE5EFE4F04910023D1F088230A
:102A700021F069830E94BE146981E02FF0E0EE0F1F
:102A8000FF1FE05DFE4F85919491DC019FB7F894A4
:102A90008C91611103C01095812301C0812B8C930F
:102AA0009FBF0F90DF91CF911F910F910895CF930A
:102AB000DF93282F30E0F901E651FF4F8491F901AF
:102AC000E250FF4FD491F901EE5EFE4FC491CC234A
:102AD00089F081110E94BE14EC2FF0E0EE0FFF1F71
:102AE000EA5DFE4F85919491DC018C918D2321E06C
:102AF00030E011F420E030E0C901DF91CF9108957A
:102B00008E3008F08E50877020910E0140E4249F93
:102B100090011124822B80937C0080917A00806444
:102B200080937A0080917A0086FDFCCF2091780016
:102B300030917900932F80E0AC01422B9A01C901BA
:102B400008951F93CF93DF93182FEB0161E00E944C
:102B5000E814209711F460E004C0CF3FD10539F4A8
:102B600061E0812FDF91CF911F910C942015E12F0F
:102B7000F0E0E651FF4FE491E330B9F028F4E130A2
:102B800051F0E230B1F50CC0E63019F1E73049F10F
:102B9000E43079F514C084B5806884BDC7BD2EC00B
:102BA00084B5806284BDC8BD29C0809180008068E2
:102BB00080938000D0938900C09388001FC08091CB
:102BC0008000806280938000D0938B00C0938A0045
:102BD00015C08091B00080688093B000C093B300AE
:102BE0000DC08091B00080628093B000C093B400AB
:102BF00005C0C038D1050CF0B3CFADCFDF91CF9178
:102C00001F9108958230E8F4E82FF0E0EE0FFF1FE7
:102C1000EF50FD4F71836083813041F080916900F6
:102C20008C7F842B80936900E89A089580916900D5
:102C3000440F551F440F551F837F842B80936900D9
:102C4000E99A0895823068F4813011F0E89801C063
:102C5000E998E82FF0E0EE0FFF1FEF50FD4F1182D3
:102C6000108208951F920F920FB60F9211242F9386
:102C70003F934F935F936F937F938F939F93AF9304
:102C8000BF93EF93FF938091F1029091F202892B11
:102C900029F0E091F102F091F2020995FF91EF9194
:102CA000BF91AF919F918F917F916F915F914F9164
:102CB0003F912F910F900FBE0F901F9018951F926C
:102CC0000F920FB60F9211242F933F934F935F9360
:102CD0006F937F938F939F93AF93BF93EF93FF93E4
:102CE0008091F3029091F402892B29F0E091F30294
:102CF000F091F4020995FF91EF91BF91AF919F91EF
:102D00008F917F916F915F914F913F912F910F9094
:102D10000FBE0F901F9018958F929F92AF92BF9207
:102D2000CF92DF92EF92FF920F931F93CF93DF9397
:102D300090E0FC01E250FF4FD491FC01EE5EFE4FAB
:102D40007491611102C0C0E001C0CD2FDA01C90148
:102D5000BF70672F70E0660F771F6A5D7E4F812C12
:102D6000912C5401FB010591149110C0C12CD12C60
:102D70007601C394C80CD91CEA1CFB1C8816990662
:102D8000AA06BB0609F44BC046015701F801E081D1
:102D9000ED23EC1759F310C0C12CD12C7601C3944C
:102DA000C80CD91CEA1CFB1C88169906AA06BB068F
:102DB000B1F14601570103C0FB0105911491F801DF
:102DC000E081ED23EC13E8CF88199909AA09BB0922
:102DD00020E030E0A901FB016591749109C028173A
:102DE00039074A075B07D9F02F5F3F4F4F4F5F4FBF
:102DF000FB01E081ED23EC1791F3A5E1B0E00E9427
:102E00006B1E8B019C01005F1F4F2F4F3F4F84E0D3
:102E100036952795179507958A95D1F703C000E059
:102E200010E09801B801C901DF91CF911F910F9176
:102E3000FF90EF90DF90CF90BF90AF909F908F90DA
:102E40000895CF92DF92EF92FF920F931F93CF934B
:102E5000DF936C01EB017A01E60EF71E00E010E053
:102E60000BC06991D601ED91FC910190F081E02DAC
:102E7000C6010995080F191FCE15DF0591F7C80186
:102E8000DF91CF911F910F91FF90EF90DF90CF9046
:102E90000895DB010D900020E9F7AD014150510983
:102EA000461B570BDC01ED91FC910280F381E02D74
:102EB00009940C944917DC01ED91FC910190F0818B
:102EC000E02D09940F931F93CF93DF93EC016DE0F6
:102ED0000E945B178C016AE0CE010E945B179C0187
:102EE000200F311FC901DF91CF911F910F910895DC
:102EF0000F931F93CF93DF93EC010E9449178C012E
:102F0000CE010E9462179801280F391FC901DF9175
:102F1000CF911F910F9108954F925F926F927F9280
:102F20009F92AF92BF92CF92DF92EF92FF920F9358
:102F30001F93CF93DF93CDB7DEB7A1970FB6F89469
:102F4000DEBF0FBECDBF5C016A017B01922E19A2CC
:102F500081E0821710F08AE0982E8E010F5D1F4FDE
:102F6000492C512C612C712CC701B601A30192018F
:102F70000E948A1E8C2D929E8019112401501109E5
:102F80008A3014F4805D01C0895CF8018083690196
:102F90007A01C114D104E104F10431F7B801C5018B
:102FA0000E944917A1960FB6F894DEBF0FBECDBFA1
:102FB000DF91CF911F910F91FF90EF90DF90CF9015
:102FC000BF90AF909F907F906F905F904F900895CB
:102FD0002115310541F4DC01ED91FC910190F08166
:102FE000E02D642F09940C948C17CF92DF92EF920E
:102FF000FF920F931F93CF93DF93EC016A017B0144
:103000002115310579F4E881F9810190F081E02DF5
:10301000642FDF91CF911F910F91FF90EF90DF9080
:10302000CF9009942A30310519F477FD0EC02AE0BB
:10303000B701A601CE01DF91CF911F910F91FF90B3
:10304000EF90DF90CF900C948C176DE20E945B178D
:103050008C0144275527BA014C195D096E097F0977
:103060002AE0CE010E948C17080F191FC801DF91BA
:10307000CF911F910F91FF90EF90DF90CF90089527
:103080007F928F929F92AF92BF92CF92DF92EF92F8
:10309000FF920F931F93CF93DF938C014A015B0143
:1030A000F22E20E030E0A901C501B4010E94541BBA
:1030B00087FF0AC06DE2C8010E945B17EC01B7FAF6
:1030C000B094B7F8B09402C0C0E0D0E0E12C60E06A
:1030D00070E080E09FE307C020E030E040E251E490
:1030E0000E94581BE394EF10F7CF262F372F482F5D
:1030F000592FC501B4010E94F01A762E872E982E02
:10310000A92E0E94C51BB62EC72ED82EE92E0E94CE
:10311000F11B9B01AC01672D782D892D9A2D0E9402
:10312000EF1AA62E972E882E792E2AE04B2D5C2D95
:103130006D2D7E2DC8010E948C17C80FD91FFF204E
:10314000B9F16FE571E0C8010E944917C80FD91F96
:103150002FC020E030E040E251E46A2D792D882D27
:10316000972D0E94A31C762EC72ED82EE92E0E94E2
:10317000C01B4B01AA2497FCA094BA2C2AE030E093
:10318000B501A401C8010E94F517C80FD91FC501D8
:10319000B4010E94F31B9B01AC01672D7C2D8D2D8A
:1031A0009E2D0E94EF1AA62E972E882E792EFA9425
:1031B000F110CFCFCE01DF91CF911F910F91FF90F2
:1031C000EF90DF90CF90BF90AF909F908F907F90C7
:1031D00008950C9440180F931F93CF93DF93EC0145
:1031E0000E9440188C01CE010E9462179801280F9E
:1031F000391FC901DF91CF911F910F9108950E944E
:1032000083140E941C08CBEDD9E10E943C08209752
:10321000E1F30E94DB19F9CFFC0184859585FC015F
:10322000E05CFF4F20813181FC01EE5BFF4F80812C
:103230009181281B390B2F733327C9010895FC0195
:1032400084859585FC01E05CFF4F40815181FC0144
:10325000EE5BFF4F208131814217530741F001900F
:10326000F081E02DE80FF91F208130E002C02FEF40
:103270003FEFC9010895FC0184859585FC01E05C60
:10328000FF4F40815181FC01EE5BFF4F2081318176
:103290004217530781F0A081B181A80FB91F8C910B
:1032A000208131812F5F3F4F2F733327318320835C
:1032B000282F30E002C02FEF3FEFC9010895FC0135
:1032C00086859785FC01E05CFF4FDC01AE5BBF4F5C
:1032D000408151812D913C91119742175307C1F7BD
:1032E0000895CF93DF93FC0186859785DC01A05C70
:1032F000BF4F2D913C9111972F5F3F4F2F73332775
:10330000EC01CE5BDF4F4881598124173507D9F393
:103310000D90BC91A02DA80FB91F6C93A685B78501
:10332000A05CBF4F11963C932E93A689B7892C9130
:1033300081E090E0058C02C0880F991F0A94E2F7A3
:10334000282B2C9381E090E0DF91CF910895089590
:103350001F920F920FB60F9211242F933F934F930A
:103360008F939F93EF93FF934091C60080919803B2
:103370009091990301968F73992720919A03309128
:103380009B038217930759F0E0919803F0919903FA
:10339000E85AFC4F40839093990380939803FF91E0
:1033A000EF919F918F914F913F912F910F900FBE71
:1033B0000F901F90189585EF92E00E940C19892BB1
:1033C00011F00C94A71908951F920F920FB60F9247
:1033D00011242F933F938F939F93EF93FF9320910B
:1033E0005403309155038091560390915703281749
:1033F000390731F48091C1008F7D8093C10014C0E2
:10340000E0915603F0915703EC5EFC4F20818091D0
:1034100056039091570301968F7399279093570302
:10342000809356032093C600FF91EF919F918F9157
:103430003F912F910F900FBE0F901F901895CF9234
:10344000DF92EF92FF92CF93DF93EC016A017B0151
:10345000411581EE580761057105F9F0EC89FD8988
:1034600081E090E00E8C02C0880F991F0A94E2F769
:10347000808360E079E08DE390E0A70196010E94EF
:103480008A1E2150310941095109569547953795B2
:103490002795211580E1380798F0EC89FD89108285
:1034A00060E874E88EE190E0A70196010E948A1E10
:1034B000215031094109510956954795379527956E
:1034C000E889F9893083EA89FB892083EE89FF89BD
:1034D000408181E090E09C010A8C02C0220F331FE2
:1034E0000A94E2F7422B4083EE89FF8940819C01D8
:1034F0000B8C02C0220F331F0A94E2F7422B408349
:10350000EE89FF8940819C010C8C02C0220F331F81
:103510000A94E2F7422B4083EE89FF8920810D8CCB
:1035200002C0880F991F0A94E2F780958223808356
:10353000DF91CF91FF90EF90DF90CF9008951092A0
:10354000F8021092F70288EE93E0A0E0B0E08093DA
:10355000F9029093FA02A093FB02B093FC0285E675
:1035600091E09093F6028093F50288E593E09093C2
:1035700002038093010384E193E09093040380931A
:10358000030385EC90E0909306038093050384EC9D
:1035900090E0909308038093070380EC90E0909371
:1035A0000A038093090381EC90E090930C038093CD
:1035B0000B0386EC90E090930E0380930D0384E060
:1035C00080930F0383E08093100387E080931103BF
:1035D00085E08093120381E080931303089550588F
:1035E000BB27AA270ED075C166D130F06BD120F071
:1035F00031F49F3F11F41EF45BC10EF4E095E7FB3C
:1036000051C1E92F77D180F3BA1762077307840796
:10361000950718F071F49EF58FC10EF4E0950B2E0E
:10362000BA2FA02D0B01B90190010C01CA01A00114
:103630001124FF27591B99F0593F50F4503E68F16F
:103640001A16F040A22F232F342F4427585FF3CFB0
:10365000469537952795A795F0405395C9F77EF481
:103660001F16BA0B620B730B840BBAF09150A1F0CA
:10367000FF0FBB1F661F771F881FC2F70EC0BA0F50
:10368000621F731F841F48F4879577956795B795D8
:10369000F7959E3F08F0B3CF9395880F08F09927D0
:1036A000EE0F979587950895D9D008F481E0089595
:1036B0000CD00FC107D140F0FED030F021F45F3FB5
:1036C00019F0F0C0511139C1F3C014D198F3992306
:1036D000C9F35523B1F3951B550BBB27AA276217D6
:1036E0007307840738F09F5F5F4F220F331F441F1B
:1036F000AA1FA9F333D00E2E3AF0E0E830D0915053
:103700005040E695001CCAF729D0FE2F27D0660F3F
:10371000771F881FBB1F261737074807AB07B0E87E
:1037200009F0BB0B802DBF01FF2793585F4F2AF094
:103730009E3F510568F0B6C000C15F3FECF3983E74
:10374000DCF3869577956795B795F7959F5FC9F7F1
:10375000880F911D9695879597F90895E1E0660F7A
:10376000771F881FBB1F621773078407BA0720F0F3
:10377000621B730B840BBA0BEE1F88F7E09508955C
:1037800004D06894B111D9C00895BCD088F09F5777
:1037900090F0B92F9927B751A0F0D1F0660F771F9D
:1037A000881F991F1AF0BA95C9F712C0B13081F07D
:1037B000C3D0B1E00895C0C0672F782F8827B85FC5
:1037C00039F0B93FCCF3869577956795B395D9F7DE
:1037D0003EF490958095709561957F4F8F4F9F4FE8
:1037E0000895E89409C097FB3EF4909580957095F4
:1037F00061957F4F8F4F9F4F9923A9F0F92F96E93D
:10380000BB279395F695879577956795B795F111B1
:10381000F8CFFAF4BB0F11F460FF1BC06F5F7F4F4E
:103820008F4F9F4F16C0882311F096E911C0772360
:1038300021F09EE8872F762F05C0662371F096E869
:10384000862F70E060E02AF09A95660F771F881F38
:10385000DAF7880F9695879597F90895990F0008DC
:10386000550FAA0BE0E8FEEF16161706E807F90752
:10387000C0F012161306E407F50798F0621B730BED
:10388000840B950B39F40A2661F0232B242B252B6E
:1038900021F408950A2609F4A140A6958FEF811D11
:1038A000811D089597F99F6780E870E060E00895B2
:1038B0009FEF80EC089500240A9416161706180648
:1038C0000906089500240A94121613061406050624
:1038D0000895092E0394000C11F4882352F0BB0FB5
:1038E00040F4BF2B11F460FF04C06F5F7F4F8F4F18
:1038F0009F4F089557FD9058440F551F59F05F3F53
:1039000071F04795880F97FB991F61F09F3F79F001
:1039100087950895121613061406551FF2CF469583
:10392000F1DF08C0161617061806991FF1CF869505
:103930007105610508940895E894BB2766277727E9
:10394000CB0197F908950BD0C4CFB5DF28F0BADFCB
:1039500018F0952309F0A6CFABCF1124EECFCADF24
:10396000A0F3959FD1F3950F50E0551F629FF00192
:10397000729FBB27F00DB11D639FAA27F00DB11DEB
:10398000AA1F649F6627B00DA11D661F829F222774
:10399000B00DA11D621F739FB00DA11D621F839FFB
:1039A000A00D611D221F749F3327A00D611D231FD1
:1039B000849F600D211D822F762F6A2F11249F571F
:1039C00050408AF0E1F088234AF0EE0FFF1FBB1F42
:1039D000661F771F881F91505040A9F79E3F5105E1
:1039E00070F060CFAACF5F3FECF3983EDCF3869592
:1039F00077956795B795F795E7959F5FC1F7FE2B8C
:103A0000880F911D9695879597F90895FA01EE0F05
:103A1000FF1F30962105310599F16115710561F49B
:103A20008038BFE39B0749F168949038810561F0C5
:103A30008038BFEF9B0741F0992342F5FF3FE10536
:103A40003105210511F1E8940894E795D901AA23DD
:103A500029F4AB2FBE2FF85FD0F310C0FF5F70F4D6
:103A6000A695E0F7F73950F019F0FF3A38F49F7750
:103A70009F930CD00F9007FC905808953EF018CFFC
:103A800060E070E080E89FE308954FE79F775F93E1
:103A90004F933F932F939ED02F913F914F915F91E2
:103AA00052DF05C019F40EF0FDCE46CF01CF2ADF5C
:103AB000C8F39638C0F707F80F92E8942BE33AEA78
:103AC00048EB5FE74EDF0F920F920F924DB75EB754
:103AD0000F92C0D0E8E6F0E016D04F915F91EF91E1
:103AE000FF91E595EE1FFF1F49F0FE57E068442760
:103AF000EE0F441FFA95E1F74195550B32D00F9028
:103B000007FE26C00895DF93CF931F930F93FF9274
:103B1000EF92DF927B018C01689405C0DA2EEF01F1
:103B20001EDFFE01E894A5912591359145915591AF
:103B3000AEF3EF0166DDFE019701A801DA9479F793
:103B4000DF90EF90FF900F911F91CF91DF9108953B
:103B50009B01AC0160E070E080E89FE3A9CDA2CEBC
:103B6000ACC0D0DEE8F39923D9F3940F511DBBF319
:103B70009150504094F059F0882332F0660F771F2F
:103B8000881F91505040C1F79E3F510544F7880F60
:103B9000911D9695879597F908955F3FACF0983EF3
:103BA0009CF0BB27869577956795B79508F4B1602B
:103BB0009395C1F7BB0F58F711F460FFE8CF6F5F23
:103BC0007F4F8F4F9F4FE3CFB8CE0EF076C070CEB1
:103BD000689468CE97DEC8F39923D1F3C6F3DF93D8
:103BE000CF931F930F93FF92C92FDD2788232AF0CD
:103BF0002197660F771F881FDAF720E030E040E852
:103C00005FEB9FE3883920F0803E30F021968F777C
:103C1000E7DCE0E9F0E003C0E3DCEDEBF0E073DFCC
:103C20008B01BE01EC01FB2E6F5771097595771F53
:103C3000880B990BD8DD28E132E741E35FE38FDEA3
:103C4000AF2D9801AE01FF900F911F91CF91DF91A1
:103C5000D8DC3FCEFA01DC01AA0FBB1F9B01AC01EF
:103C6000BF5728F422273327442750781FC0B75165
:103C700088F4AB2F0024469537952795011CA39512
:103C8000D2F3002069F0220F331F441FB395DAF3FB
:103C90000DD0A5CC61307105A0E88A07B94630F493
:103CA0009B01AC016627772788279078309621F012
:103CB000208331834283538308959F3F31F0915095
:103CC00020F4879577956795B795880F911D969500
:103CD000879597F908950E94C81EA59F900DB49FDF
:103CE000900DA49F800D911D1124089597FB072E20
:103CF00016F4009407D077FD09D00E94D41E07FC6B
:103D000005D03EF4909581959F4F089570956195EB
:103D10007F4F0895A1E21A2EAA1BBB1BFD010DC007
:103D2000AA1FBB1FEE1FFF1FA217B307E407F5076B
:103D300020F0A21BB30BE40BF50B661F771F881F47
:103D4000991F1A9469F760957095809590959B01DD
:103D5000AC01BD01CF010895052E97FB16F4009428
:103D600007D057FD0DD00E948A1E07FC09D07EF4B3
:103D700090958095709561957F4F8F4F9F4F0895D7
:103D800050954095309521953F4F4F4F5F4F089587
:103D9000A29FB001B39FC001A39F01D0B29F700D3D
:103DA000811D1124911D0895AA1BBB1B51E107C061
:103DB000AA1FBB1FA617B70710F0A61BB70B881FBB
:103DC000991F5A95A9F780959095BC01CD0108954A
:103DD000EE0FFF1F0590F491E02D09940F931F93B0
:103DE000CF93DF93689F8001699F100D789F100D1E
:103DF0001124C8010E940C1FC82FD92F209731F021
:103E0000A80160E070E08C2F0E944320CE01DF917A
:103E1000CF911F910F9108950F931F93CF93DF932D
:103E20008230910510F482E090E0E0919E03F091E1
:103E30009F0320E030E0C0E0D0E023C0408151810A
:103E400048175907A8F04817590761F482819381F0
:103E5000209719F09B838A832EC090939F038093B1
:103E60009E0329C02115310529F04217530710F090
:103E7000A90102C0BE01DF0102811381EF019A0195
:103E8000F8013097D9F62115310509F1281B390BB6
:103E90002430310590F412968D919C911397611501
:103EA000710521F0FB019383828304C090939F03EB
:103EB00080939E03FD01329644C0FD01E20FF31F83
:103EC00081939193225031092D933C933AC02091D4
:103ED0009C0330919D03232B41F4209102013091EA
:103EE000030130939D0320939C03209100013091A6
:103EF00001012115310541F42DB73EB74091040170
:103F000050910501241B350BE0919C03F0919D031A
:103F1000E217F307A0F42E1B3F0B2817390778F0A0
:103F2000AC014E5F5F4F2417350748F04E0F5F1FFF
:103F300050939D0340939C038193919302C0E0E0D2
:103F4000F0E0CF01DF91CF911F910F910895EF9293
:103F5000FF920F931F93CF93DF93009709F48EC0C6
:103F6000DC01129713961C921E921297E0909E030A
:103F7000F0909F03E114F10489F42D913C91119785
:103F8000280F391F80919C0390919D0382179307FE
:103F900089F5B0939D03A0939C0370C0E70120E0D6
:103FA00030E001C0EA01CA17DB0738F44A815B81BF
:103FB0009E0141155105B1F722C0AC014250510993
:103FC000FA01D383C28300811181BC01600F711F8C
:103FD0006C177D0761F468817981600F711F6E5FD6
:103FE0007F4F718360836A817B8173836283211534
:103FF000310529F4B0939F03A0939E033FC0F901BC
:10400000B383A283E90149915991C40FD51FAC171D
:10401000BD0771F4DC019E918E91840F951F02966D
:104020009183808312968D919C91139793838283C1
:10403000A0E0B0E002C0D7017C01F701828193814A
:104040000097C9F7C701029620813181820F931F23
:1040500020919C0330919D032817390779F410971C
:1040600029F410929F0310929E0304C013961C9291
:104070001E921297F0929D03E0929C03CDB7DEB79B
:10408000E6E00C945620DC0101C06D934150504095
:10409000E0F708952A88398848885F846E847D8493
:1040A0008C849B84AA84B984C884DF80EE80FD80E0
:1040B0000C811B81AA81B981CE0FD11D0FB6F89456
:0E40C000DEBF0FBECDBFED010895F894FFCF17
:1040CE000000A00320000300307500000100010174
:1040DE00000A006400E8033F065B4F666D7D077FB4
:1040EE006F777C395E797152656164206661696CA7
:1040FE000052656164792100447573742073656E96
:10410E00736F72205374617274656421002C000009
:10411E000000001111E31086108F10A310B3102EA3
:10412E000000000000711921170C193B191F195FAF
:02413E00190066
:00000001FF
